:020000040800F2
:1000000000240020C9010008D1010008D301000824
:10001000D5010008D7010008D90100080000000040
:10002000000000000000000000000000DB010008EC
:10003000DD01000800000000DF0100080D0D0008D0
:10004000E3010008E3010008E3010008E301000800
:10005000E3010008E3010008E3010008E3010008F0
:10006000E3010008E3010008E3010008E3010008E0
:10007000E3010008E3010008E3010008E3010008D0
:10008000E3010008E3010008E3010008E3010008C0
:10009000E3010008E3010008E3010008E3010008B0
:1000A000E3010008E3010008E3010008E3010008A0
:1000B000E3010008E3010008E3010008E301000890
:1000C000E3010008E3010008E3010008E301000880
:1000D000E3010008750D0008E3010008E3010008D2
:1000E000E3010008E3010008E301000800F002F862
:1000F00000F05AF80AA090E8000C82448344AAF168
:100100000107DA4501D100F04FF8AFF2090EBAE865
:100110000F0013F0010F18BFFB1A43F0010318473B
:10012000B01A0000D01A00000A444FF0000C10F87A
:10013000013B13F0070408BF10F8014B1D1108BF65
:1001400010F8015B641E05D010F8016B641E01F805
:10015000016BF9D113F0080F1EBF10F8014BAD1C55
:100160000C1B09D16D1E58BF01F801CBFAD505E073
:1001700014F8016B01F8016B6D1EF9D59142D6D3CD
:10018000704700000023002400250026103A28BFF5
:1001900078C1FBD8520728BF30C148BF0B607047F9
:1001A0001FB51FBD10B510BD00F058F81146FFF780
:1001B000F7FF00F0EFFF00F076F803B4FFF7F2FF6F
:1001C00003BC00F07DF8000009488047094800475B
:1001D000FEE7FEE7FEE7FEE7FEE7FEE7FEE7FEE7F7
:1001E000FEE7FEE704480549054A064B7047000054
:1001F000150D0008ED000008001E0020002400205E
:1002000000200020002000204FF0000200B513461F
:1002100094469646203922BFA0E80C50A0E80C5026
:10022000B1F12001BFF4F7AF090728BFA0E80C50D7
:1002300048BF0CC05DF804EB890028BF40F8042BD0
:1002400008BF704748BF20F8022B11F0804F18BF3D
:1002500000F8012B7047704770477047754600F0F3
:100260002BF8AE4605006946534620F00700854648
:1002700018B020B5FFF7B6FFBDE820404FF00006EC
:100280004FF000074FF000084FF0000B21F007017E
:10029000AC46ACE8C009ACE8C009ACE8C009ACE8C1
:1002A000C0098D46704710B50446AFF30080204664
:1002B000BDE81040FFF781BF00487047A01D002037
:1002C00001491820ABBEFEE726000200704710B5BA
:1002D000012000F053FB002000F050FB10BD000097
:1002E00008B501460020009003480090009808449B
:1002F00000900098008808BD006C004008B50022FE
:100300000092044A0092009A02440092009A1160FE
:1003100008BD0000006C00401CB50420FFF7E0FFA2
:1003200045F6A521884212D000F0E8FB0A201121F1
:1003300010230246CDE90010032140F2E37000F0E3
:1003400013FA45F6A5210420FFF7D8FF0EE07B2025
:1003500000F08EFB10B97A2000F08AFB00F050FC10
:100360000121084600F014FC00F040FC00F00CFBFA
:100370001CBD000030B5044604254FF4302000F0C9
:100380006FF80546042D17D10C48006940F00200B3
:100390000A49086108464461006940F0400008616C
:1003A0004FF4302000F05CF805460448006941F63F
:1003B000FD71084001490861284630BD0020024017
:1003C00004200B49C96801F0010109B101200EE0C8
:1003D0000749C96801F0040109B1022007E0044996
:1003E000C96801F0100109B1032000E00420704742
:1003F000002002400348006940F080000149086184
:10040000704700000020024070B504460D460426E7
:10041000F00200F025F80646042E11D109480069C3
:1004200040F00100074908612580F00200F018F84B
:1004300006460448006941F6FE710840014908611A
:10044000304670BD0020024002480349486003481E
:10045000486070472301674500200240AB89EFCD1B
:1004600000B502460423FFF7ABFF034603E0FFF7A6
:10047000A7FF0346521E012B01D1002AF7D102B972
:100480000523184600BD2DE9F0410246002500264F
:10049000002000230024002791F803C00CF00F0572
:1004A00091F803C00CF0100CBCF1000F03D091F8D0
:1004B00002C04CEA050591F800C0BCF1000F31D034
:1004C000146800202BE04FF0010C0CFA00F3B1F897
:1004D00000C00CEA03069E4220D183004FF00F0CAF
:1004E0000CFA03F7BC4305FA03FC4CEA040491F848
:1004F00003C0BCF1280F06D14FF0010C0CFA00FC30
:10050000C2F814C00AE091F803C0BCF1480F05D14D
:100510004FF0010C0CFA00FCC2F810C0401C082877
:10052000D1D31460B1F800C0BCF1FF0F34DD5468C2
:1005300000202EE000F1080C4FF0010808FA0CF33F
:10054000B1F800C00CEA03069E4221D183004FF0AF
:100550000F0C0CFA03F7BC4305FA03FC4CEA040445
:1005600091F803C0BCF1280F05D100F1080C08FA7E
:100570000CF8C2F8148091F803C0BCF1480F07D101
:1005800000F1080C4FF0010808FA0CF8C2F81080CE
:10059000401C0828CED35460BDE8F08102460020FC
:1005A00093680B400BB1012000E0002070474161CF
:1005B00070470161704700004CF6CC40014908606B
:1005C00070470000003000404AF6AA200149086048
:1005D000704700000030004001494860704700004B
:1005E0000030004001498860704700000030004042
:1005F00001490860704700000030004008B54FF422
:100600000050ADF8000010208DF8030003208DF895
:10061000020069460148FFF736FF08BD001001409F
:100620002DE9F84F002600F0A9FA06464B48B6FB24
:10063000F0F44FF4FC68404600F092FD00F26D10BB
:10064000A04211D809E0404600F08AFD00F26D108A
:10065000241A08F101001FFA80F8404600F080FDDE
:1006600000F26D10A042EED90127B9463C4800784F
:10067000401EA04227D2781CC7B239480078241AFD
:10068000012518E0012D09D1404600F069FD28B18F
:100690001D2C0FD91D3C781CC7B20BE03048405DC3
:1006A000401EA04205D22E48405D241A781CC7B2D5
:1006B00000E002E06D1C0C2DE4DB00BF09EB040040
:1006C00000F0FF0906E001270CB9B94602E0601C02
:1006D00000F0FF092148B6FBF0F100FB11644FF474
:1006E0006160B4FBF0F000F0FF0B4FF46160B4FB0D
:1006F000F0F100FB11403C21B0FBF1F000F0FF0AEB
:100700004FF46160B4FBF0F100FB11403C21B0FB01
:10071000F1F201FB120000901248A0F860804FF443
:100720007F4000EA072009F0FF0108430D49A1F8C6
:1007300062004FF47F4000EA0B2040EA0A00A1F873
:1007400064000098C0B2A1F86600300CC8800E8129
:100750000248B6FBF0F04881BDE8F88F80510100F7
:10076000C41B0008400200202DE9F05F07460D463B
:1007700090469A46DDF828B000244FF4FC69B7F59E
:10078000FC6F02DA0120BDE8F09F4F450FDD0CE061
:10079000484600F0E5FC10B13448044401E0344818
:1007A000044409F101001FFA80F9B945F0DB012D7D
:1007B00001DB0C2D01DD0120E5E7012D15DD002613
:1007C00010E02C48805D40F2A321484304EBC014A4
:1007D000012E05D1384600F0C3FC08B12648044478
:1007E000701C86B2681EB042EBDCB8F1010F04DB6E
:1007F000681E2049085C404501DA0120C3E7A8F1E2
:1008000001001D4901FB0044BAF1170F01DD012071
:10081000B9E7CAEB4A10C0EB0A2004EB0014BBF1A5
:100820003B0F01DD0120AEE7CBEB0B1004EB8004A6
:100830000B983B2801DD0120A5E70B98044401211A
:100840004FF0C05000F07AF8012000F071F8204617
:1008500000F0AEF900F0CAF94FF6FF7000EA14405C
:10086000064908824C8200208DE700000085E201E5
:100870008033E101C41B00088051010040020020C8
:1008800008B54FF4A06000F049F825208DF800006D
:1008900000208DF8010002208DF8020001208DF863
:1008A0000300684600F002F808BD000070B50021A2
:1008B00000230F22C47804B3154C246804F4E064C8
:1008C000C4F5E064210AC1F10403CA40447804FA83
:1008D00003F184781440214309010E4C0678A15598
:1008E000047804F01F050124AC4005786D11AD00BB
:1008F00005F1E025C5F8004109E0047804F01F0582
:100900000124AC40044D0678761145F8264070BDB0
:100910000CED00E000E400E080E100E0024901436A
:10092000024A1160704700000000FA050CED00E07B
:10093000014908627047000000000E4229B1064AD2
:10094000D2690243044BDA6104E0034AD26982436C
:10095000014BDA61704700000010024029B1064ADD
:1009600092690243044B9A6104E0034A926982430C
:10097000014B9A6170470000001002400149086075
:1009800070470000400442420348406A40F08070D3
:1009900001494862704700000010024030B5002154
:1009A0000022002400232D4D6D6805F00C0121B1BB
:1009B000042905D0082923D105E0294D056022E04E
:1009C000274D05601FE0254D6D6805F47012234D1D
:1009D0006D6805F48034022505EB92421CB9214D67
:1009E000554305600BE01D4D6D6805F400351DB1E4
:1009F0001C4D5543056002E0194D5543056002E06A
:100A0000174D056000BF00BF144D6D6805F0F00183
:100A10000909154D6B5C0568DD4045600F4D6D683B
:100A200005F4E061090A104D6B5C4568DD408560A6
:100A30000A4D6D6805F46051C90A0B4D6B5C456841
:100A4000DD40C560054D6D6805F44041890B074DDB
:100A50006B5CC568B5FBF3F5056130BD0010024065
:100A600000127A0000093D002B0100203B0100200C
:100A700010B501460022002300204A11012A02D1AC
:100A8000094C236806E0022A02D1074C236A01E0E0
:100A9000054C636A01F01F02012494401C400CB114
:100AA000012000E0002010BD0010024000210B4A90
:100AB00011700A4A203A82F82010012802D0042836
:100AC00008D103E00121054A117004E00521034A21
:100AD000117000E000BF00BF70470000201002400E
:100AE00001490860704700003C0442420249096A1B
:100AF0000143014A116270470010024010B5012104
:100B00004FF0C050FFF71AFF0120FFF711FFFFF76A
:100B1000DEFB0120FFF7CAFF00BF4120FFF7A8FF5F
:100B20000028FAD04FF48070FFF7E0FF0120FFF7B4
:100B3000D7FF00F065F800F059F80121084600F0F1
:100B400027F800F053F847F6FF7000F03FF800F088
:100B50004DF810BD0348008840F01000014908809E
:100B60007047000004280040034800884FF6EF71EA
:100B700008400149088070470428004000210348CC
:100B80000188001F008841EA004070471C2800408F
:100B900029B1064A12880243044B1A8004E0034A32
:100BA00012888243014B1A807047000000280040E1
:100BB00000B50246FFF7CEFF100C03490880091D5F
:100BC0000A80FFF7D1FF00BD1828004000B502469B
:100BD000FFF7C0FFC2F3034003490880091D0A80E4
:100BE000FFF7C2FF00BD00000828004000BF034817
:100BF000008800F020000028F9D070470428004049
:100C0000074800884FF6F77108400549088000BF83
:100C10000348008800F008000028F9D07047000061
:100C20000428004010B500F001F810BD0CB50020FC
:100C3000019000903348006840F4803031490860EA
:100C400000BF3048006800F4003000900198401C5C
:100C50000190009818B90198B0F5A06FF1D129481A
:100C6000006800F4003010B10120009001E0002085
:100C700000900098012843D12348006840F01000FC
:100C8000214908600846006820F003000860084613
:100C9000006840F0020008601A484068194948603E
:100CA0000846406848600846406840F480604860F4
:100CB0000846406820F47C1048600846406840F4CC
:100CC000E81048600846006840F08070086000BF87
:100CD0000C48006800F000700028F9D0094840680E
:100CE00020F00300074948600846406840F00200D1
:100CF000486000BF0348406800F00C000828F9D1A4
:100D00000CBD0000001002400020024010B500F0B1
:100D1000CBF910BD10B51348006840F0010011492F
:100D2000086008464068104908400E494860084677
:100D300000680E4908400B4908600846006820F426
:100D4000802008600846406820F4FE0048604FF4A8
:100D50001F008860FFF766FF4FF0006004490860DD
:100D600010BD0000001002400000FFF8FFFFF6FE7B
:100D700008ED00E010B540F22551094800F02BF8CD
:100D800008B100F0D1FE40F22771054800F023F8C9
:100D900028B1002240F22771014800F046F810BD4A
:100DA0000038014021B1828942F40052828104E07E
:100DB00082894DF6FF731A408281704702460020F7
:100DC000B1F5007F00D100BF13880B400BB10120AB
:100DD00000E00020704770B5024600240023002583
:100DE000002040F66A16B14200D100BFC1F342159F
:100DF00001F01F03012606FA03F3012D02D19689A3
:100E0000334006E0022D02D1168A334001E0968A73
:100E100033400C12012606FA04F41688344013B14C
:100E20000CB1012000E0002070BDF0B503460024A5
:100E300000260025002040F66A17B94200D100BF05
:100E40001846C1F3421401F01F06012707FA06F500
:100E5000012C01D10C3004E0022C01D1103000E053
:100E600014301AB107682F43076002E00768AF43E8
:100E70000760F0BD2DE9F04786B005460E46002418
:100E8000A24600BFA1460027B08900B100BF2F468F
:100E90002C8A4CF6FF700440F08804432C82AC8905
:100EA0004EF6F3100440B088318908437189084335
:100EB0000443AC81AC8A4FF6FF400440B089044340
:100EC000AC8201A8FFF76AFD1F48874202D1DDF816
:100ED00010A001E0DDF80CA0A88900F4004040B1AA
:100EE0000AEBCA0000EB0A1031684900B0FBF1F8C8
:100EF00007E00AEBCA0000EB0A1031688900B0FB7A
:100F0000F1F86420B8FBF0F004012009642101FB32
:100F10001089A88900F4004040B1322000EBC900DC
:100F2000B0FBF1F000F00700044308E0322000EBD2
:100F300009106421B0FBF1F000F00F0004432C8194
:100F400006B0BDE8F08700000038014001468888FF
:100F5000C0F308007047C1F30802828070470000A8
:100F600000B585B001218803FFF7F8FC4FF400704D
:100F7000ADF8000018208DF8030003208DF8020062
:100F800069461948FFF77FFA4FF48060ADF800001A
:100F900004208DF8030069461348FFF774FA4FF4F4
:100FA000165001900020ADF80800ADF80A00ADF829
:100FB0000C00ADF810000C20ADF80E0001A90B4894
:100FC000FFF758FF012240F225510848FFF72DFF97
:100FD000012240F227710548FFF727FF012103484E
:100FE000FFF7E0FE05B000BD0008014000380140F9
:100FF00010B500200D4908707D20FFF739FD20B1A4
:10100000FFF7C2FC01200949087045F25550FFF76F
:10101000EFFA0320FFF7E0FA4FF4FA70FFF7E2FA75
:10102000FFF7D2FAFFF7C8FA10BD00002A0100202E
:1010300010B500F07DFCFFF723FCFFF791FF00F0F7
:1010400009F8FFF7DBFAFFF767F9FFF7D1FF10BDEB
:101050000020704708B510208DF8030003208DF89C
:1010600002000E20ADF8000069460E48FFF70BFAAB
:101070001020ADF8000004208DF8030069460948EF
:10108000FFF701FA0120ADF8000004208DF80300FD
:1010900069460448FFF7F7F90E210248FFF789FA7D
:1010A000002008BD0008014000200EE0084901EBC7
:1010B000C001496841B1064901EBC0014968491EB8
:1010C000034A02EBC0025160401C2028EED3704757
:1010D0004001002010B5FFF7B7F90A48FFF74AF9B9
:1010E00000240AE0084A32F81410064A022303FBDF
:1010F0000420FFF789F9601C84B2202CF2DBFFF793
:1011000079F910BD000001084017002070B50025D6
:10111000FFF79AF91048FFF72DF900BF40240FE0C0
:101120000E4A32F814100C4A022303FB0420FFF786
:101130006BF90A4830F81400284485B2601C84B268
:101140007F2CEDDBA9B2044A022303FB0420FFF746
:101150005BF9FFF74FF970BD0090010840020020D5
:101160000146CA1701EB92729210A1EB82022AB9D2
:10117000642291FBF2F302FB131232B94FF4C872EE
:1011800091FBF2F302FB13120AB901207047002011
:10119000FCE700004FF6FF70144908600020144976
:1011A0000880144908801449087014490870FFF732
:1011B0003FFF13481349C1F8A0001348C1F8F800D5
:1011C000124888624FF4FA610E48C0F8A410C0F8C3
:1011D000FC1041F28831C162FFF722FAFFF720FAD2
:1011E00003E0FFF7F1F900F047FBFAE718010020F0
:1011F0001C0100201E0100202901002028010020E0
:101200009519000840010020A91A0008451A000895
:1012100010B5D548807800287DD1D348C078012802
:101220007AD1D148807900F08000002847D000248E
:101230000FE0092000EB4400CB49095C082000EBDB
:101240004400C94A105C01EB0020C84921F8140091
:10125000641CC5484179007901EB0020A042E8DC1C
:10126000C1494B79097903EB01218AB2BE49CB7997
:10127000897903EB012188B2BC4900F071FCBA49BD
:101280004B79097903EB01218AB2B749CB79897986
:1012900003EB012188B2B64900F088FAB248C3795D
:1012A000807903EB002082B2AF484379007903EBE9
:1012B000002081B2AE4B022000F000FA52E1AA48B1
:1012C00040790028FADD00246DE0AA48008C4AF23B
:1012D0005A51884226D0A748008C45F60A218842F8
:1012E00007D1A148C179807901EB00202044602812
:1012F00018DBA048008C4EF60571884207D19A4849
:10130000C179807901EB0020204440280ADB96480F
:10131000C179807901E022E14AE001EB002020441C
:1013200030283FDA610009318F4A525C6100083190
:101330008D4B595C02EB01218AB21946CB79897930
:1013400003EB01210819C11700EB91518912A0EBA1
:101350008121884B23F811208348C179807901EBE2
:10136000002020443F280ADD7F48C179807901EBC5
:1013700000202044802802DA01207F4908707A4842
:10138000C179807901EB002020442F280ADD7648BE
:10139000C179807901EB00202044342802DA012051
:1013A00076490870641C70484079A0428DDCD9E011
:1013B0006D48C07802287DD16B48807900F08000AC
:1013C00020B369494B79097903EB01218AB2664957
:1013D000CB79897903EB012188B2694900F0E6F9FC
:1013E0006148C379807903EB002082B25E4843797B
:1013F000007903EB002081B2614B022000F05EF91E
:101400000A2CD4D101205F490870ABE056484079DE
:101410000028CCDD002443E05B48007860B15248EE
:10142000C179807901EB00202044524931F8100045
:10143000534921F8140032E04E48008C4AF25A51C8
:10144000884205D04B48008C45F60A2188420CD1D1
:101450004548C179807901EB00202044454931F8A5
:101460001000474921F8140019E03F48C1798079FC
:1014700001EB002020445F280CDA3B48C1798079D9
:1014800001EB002020443B4931F810003C4921F891
:10149000140004E04FF6FF70394921F81400641C71
:1014A00031484079A042B7DC2F48C379807903EBFB
:1014B000002000E00BE082B22B484379007903EB77
:1014C000002081B22E4B022000F0F8F84AE02648B6
:1014D000C078032822D116222C4948F2080000F0D7
:1014E00065F9002029498885002408E02748808D77
:1014F000264931F81410084424498885641C162CA8
:10150000F4DB03201F490870FFF7E4FD174B48F296
:1015100008020021032000F0D1F823E01248C0782F
:1015200004281BD1002406E0194931F814000F49A2
:1015300021F81400641C402CF6DB0B48C379807939
:1015400003EB002082B208484379007903EB0020C6
:1015500081B2064B022000F0B1F803E002E0012066
:101560000849087010BD000040120020A01B002098
:10157000A01C00204002002026010020270100209E
:1015800040130020290100202801002040170020DE
:101590000000010810B5454840794FF4404101EB87
:1015A0004000093042490988884223D040480088D9
:1015B0004CF2091188421DDC3C48C078022805D154
:1015C0003B4800884CF20901884213D03748C07864
:1015D000032805D1364800884CF20901884209D019
:1015E0003248C078052818D1314800884CF20901EA
:1015F000884212D12F4830490988405C2C4909881B
:10160000C1F30B01294A5054FFF722FD08B9FFF737
:10161000FFFD00202649088031E02548008800F4BD
:101620007040B0F5404F0AD1224823490988405CF8
:101630001F490988C1F30B011C4A50541FE01C4884
:10164000008800F4004068B11A481B490988405CD2
:10165000A52807D14CF2010015490880A52013499F
:1016600048700CE0134814490988405C5A2806D198
:101670004FF400400E4908805A200C4908700C486D
:101680000088401C0A49088000200A490A4A12883A
:10169000885409480088401C07490880084600888B
:1016A000B0F5006F01D10020088010BD401200206D
:1016B00020010020400A00201E0100202DE9F043F7
:1016C000ADF2044D07460D4690461E464FF0000908
:1016D0004FF4806101A8FEF797FD5A208DF80400B1
:1016E000A5208DF80500380A8DF80600F8B28DF8AF
:1016F0000700280A8DF80800E8B28DF809004FEAC3
:1017000018208DF80A0008F0FF008DF80B00002467
:101710000EE03088000A082101EB440101AA505470
:101720003078092101EB44015054B61C601C84B28E
:10173000AC42EEDB4FF0000900240DE06000401CDD
:1017400001A9095C01AA12F8140001EB0020484429
:101750001FFA80F9601C84B2281D8442EEDB4FEA38
:101760001920082101EB450101AA5054092101EB80
:10177000450102F8019000240DE001A8015D0A482E
:10178000FFF7E9FB00BF40210748FFF717FB0028E0
:10179000F9D0601C84B20A2000EB4500A042ECDCCA
:1017A0000DF2044DBDE8F083003801402DE9F04111
:1017B00006460C4615464FF0000802211648FEF773
:1017C000F8FE02211448FEF7F2FE45F6A52000F0CF
:1017D0008DF8022000F08AF8284600F087F830469D
:1017E00000F084F845F6A720284430441FFA80F81A
:1017F000002708E000F012F82080208840441FFAFB
:1018000080F8A41C7F1C681C8742F3DB022102487D
:10181000FEF7CFFEBDE8F0810008014070B500255D
:10182000052400E0641E002CFCDC002418E04FF6C8
:10183000FF7000EA4505052400E0641E002CFCDC76
:1018400010210C48FEF7AAFE00F0010010B145F08F
:10185000010502E04FF6FE70054000F023F8641C1D
:10186000102CE4DB052400E0641E002CFCDC284680
:1018700070BD00000008014010B500240DE00848CC
:1018800050F8340040B1064800EBC400406818B975
:10189000034951F834008047641C202CEFD310BD5D
:1018A0004001002010B5052400E0641E002CFCDC83
:1018B00004210D48FEF77BFE04210B48FEF779FE5C
:1018C00004210948FEF773FE04210748FEF76FFE66
:1018D00004210548FEF76BFE052400E0641E002C81
:1018E000FCDC002010BD00000008014070B504467B
:1018F000002500BF15E004F40040B0F5004F04D10E
:1019000008210A48FEF755FE03E008210748FEF7C4
:101910004EFEFFF7C7FF4FF6FF7000EA4404681C55
:1019200085B2102DE7DB002070BD000000080140EB
:1019300070B5FFF7EFF9012144F21D00FFF70EF833
:101940001149481EB0F1807F00D31BE0481E4FF0C4
:10195000E022506150170F22002804DB13071C0EF1
:101960000A4B1C5406E013071D0E094B00F00F0430
:10197000241F1D5500BF00204FF0E022906107207A
:10198000106100BF70BD00004019010000E400E0DC
:1019900018ED00E010B52648006800F0004078B16E
:1019A000234800684000224908600846006840F06B
:1019B000010008604FF400511E48FEF7F8FD09E0F1
:1019C0001B48006840001A4908604FF4005119484C
:1019D000FEF7EFFD1848C08A64280BDC1648008B20
:1019E000642807DC1448408B642803DC1248808B91
:1019F000642817DD11480088401C104908800846FB
:101A0000008803280EDD0C48B0F8C00000F47F40C9
:101A1000B0F5B44F06D045F601200749A1F8C00043
:101A2000FFF774FB32210648C0F8A41010BD000077
:101A30001801002000100140400200202201002077
:101A40004001002010B514480078F8B11248017820
:101A50001248FFF780FA00BF40211048FFF7AEF9A7
:101A60000028F9D000200C49087000240CE00C4834
:101A7000015D0A48FFF76FFA00BF40210748FFF7F2
:101A80009DF90028F9D0641C202CF0DB4FF47A710A
:101A90000448C16210BD0000290100200038014047
:101AA000801B0020400100201CB5194800881949FE
:101AB0000988884201D0FFF76DFD1748007820B1F2
:101AC000002015490870FFF721FB14480078C8B1C1
:101AD000002012490870124890F86600104991F8E9
:101AE00064100F4CCDE90010B4F86440230A0C4C8C
:101AF00094F86220B4F86240210A094CB4F86000FE
:101B0000FEF732FE00210748C0F8FC101CBD0000A3
:101B10001C0100201E0100202601002027010020BA
:101B2000400200204001002010B50A48FFF70EFADD
:101B300009490A4A1288885408480088401C074905
:101B4000088008460088B0F5006F01D100200880A9
:101B500010BD000000380140400A00201C01002098
:101B60002DE9F04107460C4615464FF000080221CA
:101B70001348FEF71EFD02211148FEF718FD45F639
:101B8000A520FFF7B3FE0120FFF7B0FE2846FFF7C0
:101B9000ADFE3846FFF7AAFE002608E02088FFF7D2
:101BA000A5FE208840441FFA80F8A41C761CAE4293
:101BB000F4DB02210248FEF7FCFC0020BDE8F081C6
:101BC000000801401F1C1F1E1F1E1F1F1E1F1E1F5F
:101BD000F01B000800000020400100002801000860
:101BE000AC1C000840010020C02200008401000855
:101BF000100C46656220323820323031371E3232C6
:101C00003A35370311100A010203040506070809D3
:101C100010130A0B0C0D0E0F1011121314151617BA
:101C200018191A1B1D1D1E1F161429221119234FC6
:101C30000A0B17180102194A0C291D1F1213010F54
:101C40001414090A392A1D070802192E1A1A1F1915
:101C50002D3D1E151F11111B1606281149293A0B7F
:101C60002819223920298029753C05060E78698AB1
:101C700089802974597F597A3A19934980197629AC
:101C8000613B0F03892975398D2B07088429803919
:101C90007A19853977198A4985798031021601299F
:0C1CA0009A29041A067B150204060800AD
:04000005080000ED02
:00000001FF
