:020000040800F2
:1000000008240020C9010008D1010008D30100081C
:10001000D5010008D7010008D90100080000000040
:10002000000000000000000000000000DB010008EC
:10003000DD01000800000000DF0100084D0D000890
:10004000E3010008E3010008E3010008E301000800
:10005000E3010008E3010008E3010008E3010008F0
:10006000E3010008E3010008E3010008E3010008E0
:10007000E3010008E3010008E3010008E3010008D0
:10008000E3010008E3010008E3010008E3010008C0
:10009000E3010008E3010008E3010008E3010008B0
:1000A000E3010008E3010008E3010008E3010008A0
:1000B000E3010008E3010008E3010008E301000890
:1000C000E3010008E3010008E3010008E301000880
:1000D000E3010008B50D0008E3010008E301000892
:1000E000E3010008E3010008E301000800F002F862
:1000F00000F05AF80AA090E8000C82448344AAF168
:100100000107DA4501D100F04FF8AFF2090EBAE865
:100110000F0013F0010F18BFFB1A43F0010318473B
:10012000D0240000F02400000A444FF0000C10F826
:10013000013B13F0070408BF10F8014B1D1108BF65
:1001400010F8015B641E05D010F8016B641E01F805
:10015000016BF9D113F0080F1EBF10F8014BAD1C55
:100160000C1B09D16D1E58BF01F801CBFAD505E073
:1001700014F8016B01F8016B6D1EF9D59142D6D3CD
:10018000704700000023002400250026103A28BFF5
:1001900078C1FBD8520728BF30C148BF0B607047F9
:1001A0001FB51FBD10B510BD00F058F81146FFF780
:1001B000F7FF01F059F800F076F803B4FFF7F2FF0B
:1001C00003BC00F07DF8000009488047094800475B
:1001D000FEE7FEE7FEE7FEE7FEE7FEE7FEE7FEE7F7
:1001E000FEE7FEE704480549054A064B7047000054
:1001F000550D0008ED000008081E0020082400200E
:1002000008200020082000204FF0000200B513460F
:1002100094469646203922BFA0E80C50A0E80C5026
:10022000B1F12001BFF4F7AF090728BFA0E80C50D7
:1002300048BF0CC05DF804EB890028BF40F8042BD0
:1002400008BF704748BF20F8022B11F0804F18BF3D
:1002500000F8012B7047704770477047754600F0F3
:100260002BF8AE4605006946534620F00700854648
:1002700018B020B5FFF7B6FFBDE820404FF00006EC
:100280004FF000074FF000084FF0000B21F007017E
:10029000AC46ACE8C009ACE8C009ACE8C009ACE8C1
:1002A000C0098D46704710B50446AFF30080204664
:1002B000BDE81040FFF781BF00487047A41D002033
:1002C00001491820ABBEFEE726000200704710B5BA
:1002D000012000F073FB002000F070FB10BD000057
:1002E00008B501460020009003480090009808449B
:1002F00000900098008808BD006C004008B50022FE
:100300000092044A0092009A02440092009A1160FE
:1003100008BD0000006C00401CB50420FFF7E0FFA2
:1003200045F6A521884212D000F008FC0A201121D0
:1003300010230246CDE90010032140F2E37000F0E3
:1003400033FA45F6A5210420FFF7D8FF0EE07B2005
:1003500000F0AEFB10B97A2000F0AAFB00F070FCB0
:100360000121084600F034FC00F060FC00F02CFB9A
:100370001CBD000030B5044604254FF4302000F0C9
:100380006FF80546042D17D10C48006940F00200B3
:100390000A49086108464461006940F0400008616C
:1003A0004FF4302000F05CF805460448006941F63F
:1003B000FD71084001490861284630BD0020024017
:1003C00004200B49C96801F0010109B101200EE0C8
:1003D0000749C96801F0040109B1022007E0044996
:1003E000C96801F0100109B1032000E00420704742
:1003F000002002400348006940F080000149086184
:10040000704700000020024070B504460D460426E7
:10041000F00200F025F80646042E11D109480069C3
:1004200040F00100074908612580F00200F018F84B
:1004300006460448006941F6FE710840014908611A
:10044000304670BD0020024002480349486003481E
:10045000486070472301674500200240AB89EFCD1B
:1004600000B502460423FFF7ABFF034603E0FFF7A6
:10047000A7FF0346521E012B01D1002AF7D102B972
:100480000523184600BD2DE9F0410246002500264F
:10049000002000230024002791F803C00CF00F0572
:1004A00091F803C00CF0100CBCF1000F03D091F8D0
:1004B00002C04CEA050591F800C0BCF1000F31D034
:1004C000146800202BE04FF0010C0CFA00F3B1F897
:1004D00000C00CEA03069E4220D183004FF00F0CAF
:1004E0000CFA03F7BC4305FA03FC4CEA040491F848
:1004F00003C0BCF1280F06D14FF0010C0CFA00FC30
:10050000C2F814C00AE091F803C0BCF1480F05D14D
:100510004FF0010C0CFA00FCC2F810C0401C082877
:10052000D1D31460B1F800C0BCF1FF0F34DD5468C2
:1005300000202EE000F1080C4FF0010808FA0CF33F
:10054000B1F800C00CEA03069E4221D183004FF0AF
:100550000F0C0CFA03F7BC4305FA03FC4CEA040445
:1005600091F803C0BCF1280F05D100F1080C08FA7E
:100570000CF8C2F8148091F803C0BCF1480F07D101
:1005800000F1080C4FF0010808FA0CF8C2F81080CE
:10059000401C0828CED35460BDE8F08102460020FC
:1005A00093680B400BB1012000E0002070474161CF
:1005B00070470161704700004CF6CC40014908606B
:1005C00070470000003000404AF6AA200149086048
:1005D000704700000030004001494860704700004B
:1005E0000030004001498860704700000030004042
:1005F00001490860704700000030004008B5012044
:10060000ADF8000010208DF8030003208DF80200E3
:1006100069460248FFF737FF08BD0000000C0140A3
:100620002DE9F84F002600F0C9FA06464B48B6FB04
:10063000F0F44FF4FC68404600F0FCFD00F26D1051
:10064000A04211D809E0404600F0F4FD00F26D1020
:10065000241A08F101001FFA80F8404600F0EAFD74
:1006600000F26D10A042EED90127B9463C4800784F
:10067000401EA04227D2781CC7B239480078241AFD
:10068000012518E0012D09D1404600F0D3FD28B125
:100690001D2C0FD91D3C781CC7B20BE03048405DC3
:1006A000401EA04205D22E48405D241A781CC7B2D5
:1006B00000E002E06D1C0C2DE4DB00BF09EB040040
:1006C00000F0FF0906E001270CB9B94602E0601C02
:1006D00000F0FF092148B6FBF0F100FB11644FF474
:1006E0006160B4FBF0F000F0FF0B4FF46160B4FB0D
:1006F000F0F100FB11403C21B0FBF1F000F0FF0AEB
:100700004FF46160B4FBF0F100FB11403C21B0FB01
:10071000F1F201FB120000901248A0F860804FF443
:100720007F4000EA072009F0FF0108430D49A1F8C6
:1007300062004FF47F4000EA0B2040EA0A00A1F873
:1007400064000098C0B2A1F86600300CC8800E8129
:100750000248B6FBF0F04881BDE8F88F80510100F7
:10076000E42500084402002010B501240420FFF70E
:10077000B7FD45F6A521884212D001214FF0C050A7
:1007800000F0FCF8012000F0F3F8FFF7A0FD0120D5
:1007900000F0C6F900F054FA00F048FA002400E036
:1007A0000224204610BD00002DE9F05F07460D46EB
:1007B00090469A46DDF828B000244FF4FC69B7F55E
:1007C000FC6F02DA0120BDE8F09F4F450FDD0CE021
:1007D000484600F02FFD10B13448044401E034488D
:1007E000044409F101001FFA80F9B945F0DB012D3D
:1007F00001DB0C2D01DD0120E5E7012D15DD0026D3
:1008000010E02C48805D40F2A321484304EBC01463
:10081000012E05D1384600F00DFD08B126480444EC
:10082000701C86B2681EB042EBDCB8F1010F04DB2D
:10083000681E2049085C404501DA0120C3E7A8F1A1
:1008400001001D4901FB0044BAF1170F01DD012031
:10085000B9E7CAEB4A10C0EB0A2004EB0014BBF165
:100860003B0F01DD0120AEE7CBEB0B1004EB800466
:100870000B983B2801DD0120A5E70B9804440121DA
:100880004FF0C05000F07AF8012000F071F82046D7
:1008900000F0AEF900F0CAF94FF6FF7000EA14401C
:1008A000064908824C8200208DE700000085E201A5
:1008B0008033E101E425000880510100440200205A
:1008C00008B54FF4A06000F049F825208DF800002D
:1008D00000208DF8010002208DF8020001208DF823
:1008E0000300684600F002F808BD000070B5002162
:1008F00000230F22C47804B3154C246804F4E06488
:10090000C4F5E064210AC1F10403CA40447804FA42
:1009100003F184781440214309010E4C0678A15557
:10092000047804F01F050124AC4005786D11AD007A
:1009300005F1E025C5F8004109E0047804F01F0541
:100940000124AC40044D0678761145F8264070BD70
:100950000CED00E000E400E080E100E0024901432A
:10096000024A1160704700000000FA050CED00E03B
:10097000014908627047000000000E4229B1064A92
:10098000D2690243044BDA6104E0034AD26982432C
:10099000014BDA61704700000010024029B1064A9D
:1009A00092690243044B9A6104E0034A92698243CC
:1009B000014B9A6170470000001002400149086035
:1009C00070470000400442420348406A40F0807093
:1009D00001494862704700000010024030B5002114
:1009E0000022002400232D4D6D6805F00C0121B17B
:1009F000042905D0082923D105E0294D056022E00E
:100A0000274D05601FE0254D6D6805F47012234DDC
:100A10006D6805F48034022505EB92421CB9214D26
:100A2000554305600BE01D4D6D6805F400351DB1A3
:100A30001C4D5543056002E0194D5543056002E029
:100A4000174D056000BF00BF144D6D6805F0F00143
:100A50000909154D6B5C0568DD4045600F4D6D68FB
:100A600005F4E061090A104D6B5C4568DD40856066
:100A70000A4D6D6805F46051C90A0B4D6B5C456801
:100A8000DD40C560054D6D6805F44041890B074D9B
:100A90006B5CC568B5FBF3F5056130BD0010024025
:100AA00000127A0000093D002D0100203D010020C8
:100AB00010B501460022002300204A11012A02D16C
:100AC000094C236806E0022A02D1074C236A01E0A0
:100AD000054C636A01F01F02012494401C400CB1D4
:100AE000012000E0002010BD0010024000210B4A50
:100AF00011700A4A203A82F82010012802D00428F6
:100B000008D103E00121054A117004E00521034AE0
:100B1000117000E000BF00BF7047000020100240CD
:100B200001490860704700003C0442420249096ADA
:100B30000143014A116270470010024010B50121C3
:100B40004FF0C050FFF71AFF0120FFF711FFFFF72A
:100B5000BEFB0120FFF7CAFF00BF4120FFF7A8FF3F
:100B60000028FAD04FF48070FFF7E0FF0120FFF774
:100B7000D7FF00F065F800F059F80121084600F0B1
:100B800027F800F053F847F6FF7000F03FF800F048
:100B90004DF810BD0348008840F01000014908805E
:100BA0007047000004280040034800884FF6EF71AA
:100BB000084001490880704704280040002103488C
:100BC0000188001F008841EA004070471C2800404F
:100BD00029B1064A12880243044B1A8004E0034AF2
:100BE00012888243014B1A807047000000280040A1
:100BF00000B50246FFF7CEFF100C03490880091D1F
:100C00000A80FFF7D1FF00BD1828004000B502465A
:100C1000FFF7C0FFC2F3034003490880091D0A80A3
:100C2000FFF7C2FF00BD00000828004000BF0348D6
:100C3000008800F020000028F9D070470428004008
:100C4000074800884FF6F77108400549088000BF43
:100C50000348008800F008000028F9D07047000021
:100C60000428004010B500F001F810BD0CB50020BC
:100C7000019000903348006840F4803031490860AA
:100C800000BF3048006800F4003000900198401C1C
:100C90000190009818B90198B0F5A06FF1D12948DA
:100CA000006800F4003010B10120009001E0002045
:100CB00000900098012843D12348006840F01000BC
:100CC000214908600846006820F0030008600846D3
:100CD000006840F0020008601A48406819494860FE
:100CE0000846406848600846406840F480604860B4
:100CF0000846406820F47C1048600846406840F48C
:100D0000E81048600846006840F08070086000BF46
:100D10000C48006800F000700028F9D009484068CD
:100D200020F00300074948600846406840F0020090
:100D3000486000BF0348406800F00C000828F9D163
:100D40000CBD0000001002400020024010B500F071
:100D5000CBF910BD10B51348006840F001001149EF
:100D6000086008464068104908400E494860084637
:100D700000680E4908400B4908600846006820F4E6
:100D8000802008600846406820F4FE0048604FF468
:100D90001F008860FFF766FF4FF00060044908609D
:100DA00010BD0000001002400000FFF8FFFFF6FE3B
:100DB00008ED00E010B540F22551094800F02BF88D
:100DC00008B101F0C1FB40F22771054800F023F89B
:100DD00028B1002240F22771014800F046F810BD0A
:100DE0000038014021B1828942F40052828104E03E
:100DF00082894DF6FF731A408281704702460020B7
:100E0000B1F5007F00D100BF13880B400BB101206A
:100E100000E00020704770B5024600240023002542
:100E2000002040F66A16B14200D100BFC1F342155E
:100E300001F01F03012606FA03F3012D02D1968962
:100E4000334006E0022D02D1168A334001E0968A33
:100E500033400C12012606FA04F41688344013B10C
:100E60000CB1012000E0002070BDF0B50346002465
:100E700000260025002040F66A17B94200D100BFC5
:100E80001846C1F3421401F01F06012707FA06F5C0
:100E9000012C01D10C3004E0022C01D1103000E013
:100EA00014301AB107682F43076002E00768AF43A8
:100EB0000760F0BD2DE9F04786B005460E460024D8
:100EC000A24600BFA1460027B08900B100BF2F464F
:100ED0002C8A4CF6FF700440F08804432C82AC89C5
:100EE0004EF6F3100440B0883189084371890843F5
:100EF0000443AC81AC8A4FF6FF400440B089044300
:100F0000AC8201A8FFF76AFD1F48874202D1DDF8D5
:100F100010A001E0DDF80CA0A88900F4004040B169
:100F20000AEBCA0000EB0A1031684900B0FBF1F887
:100F300007E00AEBCA0000EB0A1031688900B0FB39
:100F4000F1F86420B8FBF0F004012009642101FBF2
:100F50001089A88900F4004040B1322000EBC9009C
:100F6000B0FBF1F000F00700044308E0322000EB92
:100F700009106421B0FBF1F000F00F0004432C8154
:100F800006B0BDE8F08700000038014001468888BF
:100F9000C0F308007047C1F3080282807047000068
:100FA00000B585B001218803FFF7F8FC4FF400700D
:100FB000ADF8000018208DF8030003208DF8020022
:100FC00069461948FFF75FFA4FF48060ADF80000FA
:100FD00004208DF8030069461348FFF754FA4FF4D4
:100FE000165001900020ADF80800ADF80A00ADF8E9
:100FF0000C00ADF810000C20ADF80E0001A90B4854
:10100000FFF758FF012240F225510848FFF72DFF56
:10101000012240F227710548FFF727FF012103480D
:10102000FFF7E0FE05B000BD0008014000380140B8
:1010300010B500200D4908707D20FFF739FD20B163
:10104000FFF7C2FC01200949087045F25550FFF72F
:10105000CFFA0320FFF7C0FA4FF4FA70FFF7C2FA95
:10106000FFF7B2FAFFF7A8FA10BD00002C0100202C
:1010700010B500F013FFFFF723FCFFF791FF00F01E
:1010800009F8FFF7BBFAFFF747F9FFF7D1FF10BDEB
:101090000020704708B510208DF8030003208DF85C
:1010A00002000E20ADF8000069460E48FFF7EBF98C
:1010B0001020ADF8000004208DF8030069460948AF
:1010C000FFF7E1F90120ADF8000004208DF80300DE
:1010D00069460448FFF7D7F90E210248FFF769FA7D
:1010E000002008BD0008014000200BE0074951F82E
:1010F000301031B1054951F83010491E034A42F809
:101100003010401C2028F1D370470000440100201B
:101110002449B1F8A210FA2905DD45F60321214A38
:10112000A2F8A0103DE01F49B1F86210080A1D495D
:1011300091F8A21008440C21B0FBF1F201FB12015E
:1011400099B9184991F8621001F54061154AA2F861
:101150009210411E0C22B1FBF2F1124AB2F860204B
:101160001144104AA2F8901015E00C21B0FBF1F2E6
:1011700001FB12020B49B1F8621062F31F21094A08
:10118000A2F892100C21B0FBF1F1B2F860201144EA
:10119000044AA2F8901045F60221024AA2F8A010D3
:1011A000508270474402002010B5FFF74DF90A48FD
:1011B000FFF7E0F800240AE0084A32F81410064A63
:1011C000022303FB0420FFF71FF9601C84B2202CCC
:1011D000F2DBFFF70FF910BD0000010844170020F3
:1011E00070B50025FFF730F91048FFF7C3F800BFCE
:1011F00040240FE00E4A32F814100C4A022303FB7D
:101200000420FFF701F90A4830F81400284485B299
:10121000601C84B27F2CEDDBA9B2044A022303FBDD
:101220000420FFF7F1F8FFF7E5F870BD0090010822
:10123000440200200146CA1701EB92729210A1EB02
:1012400082022AB9642291FBF2F302FB131232B933
:101250004FF4C87291FBF2F302FB13120AB901209A
:1012600070470020FCE700001FB54FF6FF70FE49F5
:1012700008600020FD490880FD490880FD4908708C
:10128000FD490870FD490870FD490870FD49087066
:10129000FD49087000240FE0002608E0002701E067
:1012A000781C87B2B7F57A7FFADB701C86B2B6F588
:1012B0007A7FF3DB601C84B2052CEDDB002407E0B1
:1012C000F24931F81400F24921F81400601C84B28C
:1012D000402CF5DB402407E0EE4931F81400EE49DC
:1012E00021F81400601C84B2802CF5DBEB48006808
:1012F0000090EA48001D00680190E8480830006846
:1013000002904FF47F41009801EA00200099C1F358
:1013100007210843E049A1F860004FF47F4100989D
:1013200001EA1020009940EA1160DB49A1F862004F
:101330004FF47F41019801EA00200199C1F3072190
:101340000843D549A1F864004FF47F41019801EAB0
:101350001020019940EA1160CF49A1F866004FF4CE
:101360007F41029801EA00200299C1F30721084356
:10137000C949A1F868004FF47F41029801EA1020A2
:10138000029940EA1160C449A1F86A004FF47F4114
:10139000039801EA00200399C1F307210843BE49DD
:1013A000A1F86C004FF47F41039801EA10200399E3
:1013B00040EA1160B849A1F86E00B948C0793038E8
:1013C0004FF47A714843B649097A303901EBC102CA
:1013D00002EB011100EB8101B148407A303800EB9B
:1013E000800001EB4000AE49897A08443038AA49B0
:1013F000A1F87000AA4800784A280CD1A848407883
:10140000612808D1A64880786E2804D14FF48070F6
:10141000A1F87200C9E0A248007846280DD1A04882
:101420004078652809D19E488078622805D14FF41C
:1014300000709949A1F87200B7E0994800784D28EA
:101440000DD197484078612809D195488078722855
:1014500005D14FF440709049A1F87200A5E0904882
:10146000007841280DD18E484078702809D18C48E9
:101470008078722805D14FF480608749A1F8720006
:1014800093E0874800784D280DD185484078612841
:1014900009D183488078792805D14FF4A0607E492E
:1014A000A1F8720081E07E4800784A280DD17C487E
:1014B0004078752809D17A4880786E2805D14FF494
:1014C000C0607549A1F872006FE0754800784A283D
:1014D0000DD173484078752809D1714880786C28FF
:1014E00005D14FF4E0606C49A1F872005DE06C48F2
:1014F000007841280DD16A484078752809D168489C
:101500008078672805D14FF400606349A1F8720024
:101510004BE06348007853280DD161484078652836
:1015200009D15F488078702805D14FF410605A497E
:10153000A1F8720039E05A4800784F280DD1584878
:101540004078632809D156488078742805D14FF433
:1015500020605149A1F8720027E0514800784E28D8
:101560000DD14F4840786F2809D14D4880787628B2
:1015700005D14FF430604849A1F8720015E04848A1
:10158000007844280DD146484078652809D1444860
:101590008078632805D14FF440603F49A1F872007C
:1015A00003E000203C49A1F872003D484079303802
:1015B0003B490979303901EB810100EB4100C0B2B0
:1015C0003549B1F8721008433349A1F87200354823
:1015D0004078303833490978303901EB810100EB2C
:1015E000410001022F48C078303800EB800001EB49
:1015F00040012C480079303808442749A1F874008C
:101600000025002408E004F14000234931F81000CF
:10161000284485B2601C84B23F2CF4DB1E48B0F82D
:10162000FE00A8420BD0402405E000201A4921F812
:101630001400601C84B2802CF7DBFFF7D1FDFFF7AC
:1016400017FD19491948C0F8A4101949C0F8FC1031
:101650001849C1621849C1671849C0F8CC10184927
:1016600041654FF4FA602DE0180100201C010020B4
:101670001E0100202B0100202A010020260100204D
:101680002701002029010020280100200000010876
:10169000441700200090010844020020E8F7FF1FD3
:1016A000000000200C000020551F0008440100200D
:1016B000A520000841200008E123000801200008BF
:1016C000011F00081F49C1F8A000C1F8F80041F24D
:1016D0008830886264208867C1F8C8000865FEF712
:1016E0009FFFFEF79DFF1848B0F8A00045F60221C5
:1016F00088421BD11448B0F890001349B1F860102B
:10170000884203DA00201049C88115E00E48B0F87D
:1017100092000D49B1F86210884203DA00200A49AC
:10172000C88109E001200849C88105E00648C08950
:1017300040F001000449C88103E0FEF745FF00F0D6
:101740004FFBFAE7440100204402002010B5DF48B7
:10175000807800287DD1DD48C07801287AD1DB4827
:10176000807900F08000002847D000240FE0092095
:1017700000EB4400D549095C082000EB4400D34A43
:10178000105C01EB0020D24921F81400641CCF4802
:101790004179007901EB0020A042E8DCCB494B798C
:1017A000097903EB01218AB2C849CB79897903EB26
:1017B000012188B2C64900F0E3FEC4494B7909799A
:1017C00003EB01218AB2C149CB79897903EB01216D
:1017D00088B2C04900F09EFABC48C379807903EB17
:1017E000002082B2B9484379007903EB002081B22E
:1017F000B84B022000F016FA66E1B44840790028A0
:10180000FADD002480E0B448008C4AF25A51884244
:1018100026D0B148008C45F60A21884207D1AB4852
:10182000C179807901EB00202044602818DBAA48A8
:10183000008C4EF60571884207D1A448C1798079A1
:1018400001EB0020204440280ADBA048C1798079C0
:1018500001E036E15EE001EB00202044302852DA5E
:1018600061000931994A525C61000831974B595C1B
:1018700002EB01218AB21946CB79897903EB012168
:101880000819C11700EB91518912A0EB8121924BED
:1018900023F811208D48C179807901EB0020204484
:1018A0003F280ADD8948C179807901EB0020204476
:1018B000802802DA0120894908708448C17980793A
:1018C00001EB002020442F280ADD8048C17980796F
:1018D00001EB00202044342802DA012080490870FE
:1018E0007A48C179807901EB0020204427280ADD5D
:1018F0007648C179807901EB002020442D2802DA56
:10190000012078490870641C70484079A0423FF774
:101910007AAFD9E06D48C07802287DD16B488079D4
:1019200000F0800020B369494B79097903EB01216C
:101930008AB26649CB79897903EB012188B26A4979
:1019400000F0E8F96148C379807903EB002082B2A6
:101950005E484379007903EB002081B2624B02209C
:1019600000F060F90A2CD4D1012060490870ABE086
:10197000564840790028CCDD002443E05C480078DC
:1019800060B15248C179807901EB0020204452496E
:1019900031F81000544921F8140032E04E48008C10
:1019A0004AF25A51884205D04B48008C45F60A212C
:1019B00088420CD14548C179807901EB0020204450
:1019C000454931F81000484921F8140019E03F4812
:1019D000C179807901EB002020445F280CDA3B4874
:1019E000C179807901EB002020443B4931F8100097
:1019F0003D4921F8140004E04FF6FF703A4921F800
:101A00001400641C31484079A042B7DC2F48C379E8
:101A1000807903EB002000E00BE082B22B48437991
:101A2000007903EB002081B22F4B022000F0FAF87E
:101A30004AE02648C078032822D116222D4948F2D0
:101A4000080000F067F900202A498885002408E092
:101A50002848808D274931F8141008442549888585
:101A6000641C162CF4DB032020490870FFF79CFB54
:101A7000174B48F208020021032000F0D3F823E0BE
:101A80001248C07804281BD1002406E01A4931F816
:101A900014000F4921F81400641C402CF6DB0B489D
:101AA000C379807903EB002082B20848437900793A
:101AB00003EB002081B2064B022000F0B3F803E0F4
:101AC00002E001200949087010BD00004412002006
:101AD000A41B0020A41C002044020020260100209A
:101AE0002701002028010020441300202B010020A2
:101AF0002A010020441700200000010810B54548C5
:101B000040794FF4404101EB4000093042490988D7
:101B1000884223D0404800884CF2091188421DDCDD
:101B20003C48C078022805D13B4800884CF20901A6
:101B3000884213D03748C078032805D1364800883A
:101B40004CF20901884209D03248C078052818D1E2
:101B5000314800884CF20901884212D12F4830499F
:101B60000988405C2C490988C1F30B01294A50546B
:101B7000FFF78EFA08B9FFF7E9FD00202649088033
:101B800031E02548008800F47040B0F5404F0AD19C
:101B9000224823490988405C1F490988C1F30B0189
:101BA0001C4A50541FE01C48008800F4004068B1F3
:101BB0001A481B490988405CA52807D14CF201004E
:101BC00015490880A520134948700CE013481449B2
:101BD0000988405C5A2806D14FF400400E4908801D
:101BE0005A200C4908700C480088401C0A4908809B
:101BF00000200A490A4A1288885409480088401C73
:101C00000749088008460088B0F5006F01D1002020
:101C1000088010BD4412002020010020440A00204A
:101C20001E0100202DE9F043ADF2044D07460D469C
:101C300090461E464FF000094FF4806101A8FEF760
:101C4000E3FA5A208DF80400A5208DF80500380A23
:101C50008DF80600F8B28DF80700280A8DF8080004
:101C6000E8B28DF809004FEA18208DF80A0008F054
:101C7000FF008DF80B0000240EE03088000A0821D8
:101C800001EB440101AA50543078092101EB4401D1
:101C90005054B61C601C84B2AC42EEDB4FF000091D
:101CA00000240DE06000401C01A9095C01AA12F8A3
:101CB000140001EB002048441FFA80F9601C84B234
:101CC000281D8442EEDB4FEA1920082101EB450173
:101CD00001AA5054092101EB450102F801900024AA
:101CE0000DE001A8015D0A48FFF755F900BF40214A
:101CF0000748FFF783F80028F9D0601C84B20A2057
:101D000000EB4500A042ECDC0DF2044DBDE8F08391
:101D1000003801402DE9F04106460C4615464FF0CB
:101D2000000802211648FEF744FC02211448FEF781
:101D30003EFC45F6A52000F08FF8022000F08CF85C
:101D4000284600F089F8304600F086F845F6A720CE
:101D5000284430441FFA80F8002708E000F012F809
:101D60002080208840441FFA80F8A41C7F1C681C37
:101D70008742F3DB02210248FEF71BFCBDE8F0813D
:101D80000008014070B50025052400E0641E002C09
:101D9000FCDC002418E04FF6FF7000EA450505243E
:101DA00000E0641E002CFCDC10210C48FEF7F6FB62
:101DB00000F0010010B145F0010502E04FF6FE70A1
:101DC000054000F025F8641C102CE4DB052400E03D
:101DD000641E002CFCDC284670BD00000008014099
:101DE00010B500240EE0094800EBC400406840B183
:101DF000064850F8340020B9044901EBC401486892
:101E00008047641C202CEED310BD0000440100204C
:101E100010B5052400E0641E002CFCDC04210D48F4
:101E2000FEF7C5FB04210B48FEF7C3FB042109485C
:101E3000FEF7BDFB04210748FEF7B9FB0421054866
:101E4000FEF7B5FB052400E0641E002CFCDC00203E
:101E500010BD00000008014070B50446002500BF19
:101E600015E004F40040B0F5004F04D108210A4801
:101E7000FEF79FFB03E008210748FEF798FBFFF7FA
:101E8000C7FF4FF6FF7000EA4404681C85B2102DAE
:101E9000E7DB002070BD00000008014070B5FEF7D0
:101EA00059FF012144F21D00FEF778FD1149481E3B
:101EB000B0F1807F00D31BE0481E4FF0E02250615C
:101EC00050170F22002807DA13071D0E0A4B00F0E7
:101ED0000F04241F1D5503E013071C0E074B1C5451
:101EE00000BF00204FF0E02290610720106100BF8A
:101EF00070BD00004019010018ED00E000E400E0B2
:101F000008B51248B0F8A00045F6012188420DD16D
:101F100001226946D003FFF7FDFEBDF8000000F086
:101F2000030003280CD1FFF7F3F809E00748B0F8E5
:101F3000A200FA2804DD45F603200449A1F8A00018
:101F40004FF4FA600249086508BD00004402002011
:101F50004401002010B52548006800F0004070B131
:101F6000224800684000214908600846006840F0A7
:101F70000100086001211E48FEF719FB08E01B481C
:101F8000006840001949086001211948FEF711FB5B
:101F90001848C08A64280BDC1648008B642807DCCC
:101FA0001448408B642803DC1248808B642817DDBA
:101FB00011480088401C1049088008460088032802
:101FC0000EDD0C48B0F8C00000F47F40B0F5B44F0F
:101FD00006D045F601200749A1F8C000FFF700F937
:101FE00032200649C1F8A00010BD000018010020F1
:101FF000000C014044020020220100204401002086
:1020000010B50C48007818B1FEF7AEFB094908700E
:1020100008480078022805D10748008840F40040AD
:1020200005490880FEF7FCFA4FF4FA600349C1F84D
:10203000C80010BD240100204402002044010020FB
:1020400010B514480078F8B1124801781248FEF72C
:10205000A2FF00BF40211048FEF7D0FE0028F9D0B3
:1020600000200C49087000240CE00C48015D0A486F
:10207000FEF791FF00BF40210748FEF7BFFE002892
:10208000F9D0641C202CF0DB4FF47A70044988628C
:1020900010BD00002B01002000380140841B0020EF
:1020A000440100202DE9F04186B0C0480088C049B5
:1020B0000988884201D0FFF721FDBE48007820B191
:1020C0000020BC490870FFF78BF8BB480078F0B1DE
:1020D0000020B9490870B94890F86600B74991F8EE
:1020E0006410DFF8D8C2CDE90010BCF864C04FEA34
:1020F0001C23DFF8C8C29CF86220BCF862C04FEA1B
:102100001C21DFF8B8C2BCF86000FEF74DFBAC48FC
:10211000007800287BD0002404E00020A94908555D
:10212000601CC4B2202CF8DB002412E004F1400053
:10213000A24931F81000010AA24A02F8141004F171
:1021400040009E4911F810106000401C1154601CA2
:10215000C4B2082CEADB9948B0F86000000A99493B
:102160000874964890F8600048749448B0F862008B
:10217000000A8874914890F86200C87400200875BD
:102180008E4890F8580048750846407D10B906B052
:10219000BDE8F081002434E0002507E005EB4410A1
:1021A0008949085C89494855681CC5B2202DF5DB72
:1021B0004FF6FF7600271DE08448C05D8149085C2A
:1021C0004FF47F4101EA0020464000250EE006F46E
:1021D000004028B141F2210080EA460086B203E0C7
:1021E0004FF6FF7000EA4606681CC5B2082DEEDB0C
:1021F000781CC7B2202FDFDB03A921F81460601C14
:10220000C4B2042CC8DB4FF0000800240EE0A4E0A8
:1022100003A830F8141004F12800684A32F81000BE
:10222000814201D04FF00108601CC4B2042CEFDBE6
:10223000B8F1000F37D16348407DFF2805D145F63E
:1022400003205E49A1F8A0002AE05E48407DFE28F8
:1022500003D101205E49087022E05A48407DFD28E4
:102260000AD100205549A1F8C000A1F8C200A1F888
:10227000C400A1F8C60013E05248407D4F49A1F8C0
:10228000A2000846B0F8A00045F60221884202D11B
:10229000FEF73EFF04E045F601204849A1F8A00002
:1022A000FEF79EFF56E0002437E0002507E005EB2F
:1022B00044104849085C45494855681CC5B2202D62
:1022C000F5DB04F160003D4931F8106000271DE0A6
:1022D0003E48C05D3B49085C4FF47F4101EA002065
:1022E000464000250EE006F4004028B141F22100EE
:1022F00080EA460086B203E04FF6FF7000EA460629
:10230000681CC5B2082DEEDB781CC7B2202FDFDBBE
:1023100003A921F81460601CC4B2042CC5DB4FF083
:10232000000800240DE003A830F8141004F1280080
:10233000224A32F81000814201D04FF00108601C9F
:10234000C4B2042CEFDBB8F1000F03D1FEF7E0FEBE
:10235000FEF746FF00201A4908701F480078F0B1C8
:102360001648808A40F63301884204D01348808A98
:10237000B0F5FC6F10DA00240AE004F115000F49F3
:1023800031F810104B300D4A22F81010601CC4B206
:10239000042CF2DBFEF724FF00200F490870002018
:1023A0000E49C1F8F80000BFF1E600001C01002052
:1023B0001E010020260100202701002044020020E9
:1023C00028010020841B002015000020641B002031
:1023D0002A0100209500002029010020440100204E
:1023E00010B5C2B05548B0F8A00045F602218842A9
:1023F00034D15248B0F890005049B1F8601088428A
:102400000ADA00204D49C8814190012241A948F2D1
:10241000010000F0B5F827E04848B0F890004749BF
:10242000B1F86010884212D14448B0F89200434994
:10243000B1F8621088420ADA00204049C881419010
:10244000012241A948F2010000F09AF80CE03B4853
:10245000C08940F001003949C88105E03748C0898A
:1024600040F001003549C8813448807B00F003000A
:10247000012819D1012201A948F21F00FFF74AFCE7
:10248000BDF8040000F47F40B0F52E4F06D0BDF833
:10249000040000F47F40B0F52B4F05D12748C089D8
:1024A00040F002002549C8812448807B00F00700E5
:1024B00003281DD10024002041900BE02048BDF8E6
:1024C000041130F81100204484B2BDF80401401C0E
:1024D00080B24190BDF804011628EFDB1848808DCA
:1024E000A04205D11548C08940F004001349C881B5
:1024F0001248807B00F00F00072819D116221049DE
:1025000048F2080000F03CF801204190012241A966
:1025100048F2010000F034F8012201A948F201005C
:10252000FFF7F8FB0548C08940F008000349C8815F
:1025300040F6B8300349886742B010BD440200201D
:10254000441700204401002010B50A48FEF71EFD84
:1025500009490A4A1288885408480088401C0749DB
:10256000088008460088B0F5006F01D1002008807F
:1025700010BD000000380140440A00201C0100206A
:102580002DE9F04107460C4615464FF000080221A0
:102590001348FEF70EF802211148FEF708F845F639
:1025A000A520FFF759FC0120FFF756FC2846FFF74E
:1025B00053FC3846FFF750FC002608E02088FFF760
:1025C0004BFC208840441FFA80F8A41C761CAE42C5
:1025D000F4DB02210248FDF7ECFF0020BDE8F081AA
:1025E000000801401F1C1F1E1F1E1F1F1E1F1E1F35
:1025F0001026000800000020440100002801000807
:10260000D026000844010020C422000084010008F4
:10261000100C4665622032322032303137100931D9
:10262000343A33383A3133100A01020304050607FD
:10263000080910130A0B0C0D0E0F101112131415AC
:10264000161718191A1B1D1D1E1F161429221119E1
:10265000234F0A0B17180102194A0C291D1F1213C8
:10266000010F1414090A392A1D070802192E1A1A13
:102670001F192D3D1E151F11111B16062811492962
:102680003A0B2819223920298029753C05060E7835
:10269000698A89802974597F597A3A19934980192E
:1026A0007629613B0F03892975398D2B0708842909
:1026B00080397A19853977198A49857980310218E4
:1026C00001299C29041A067D350204060800000031
:04000005080000ED02
:00000001FF
