:020000040800F2
:10000000F82B0020E1010008E9010008EB010008DD
:10001000ED010008EF010008F101000800000000F8
:10002000000000000000000000000000F3010008D4
:10003000F501000800000000F7010008251900087C
:10004000FB010008FB010008FB010008FB010008A0
:10005000FB010008FB010008FB010008FB01000890
:10006000FB010008FB010008FB010008FB01000880
:10007000FB010008FB010008FB010008FB01000870
:10008000FB010008FB010008FB010008FB01000860
:10009000FB010008FB010008FB010008FB01000850
:1000A000FB010008FB010008FB010008FB01000840
:1000B000FB010008FB010008FB010008FB01000830
:1000C000FB010008FB010008FB010008FB01000820
:1000D000FB0100088D190008FB010008FB01000866
:1000E000FB010008FB010008FB01000800F002F81A
:1000F00000F067F80AA090E8000C82448344AAF15B
:100100000107DA4501D100F05CF8AFF2090EBAE858
:100110000F0013F0010F18BFFB1A43F0010318473B
:10012000E0370000003800000A444FF0000C10F8DF
:10013000013B13F0070408BF10F8014B1D1108BF65
:1001400010F8015B641E05D010F8016B641E01F805
:10015000016BF9D113F0080F1EBF10F8014BAD1C55
:100160000C1B09D16D1E58BF01F801CBFAD505E073
:1001700014F8016B01F8016B6D1EF9D59142D6D3CD
:10018000704700000023002400250026103A28BFF5
:1001900078C1FBD8520728BF30C148BF0B607047F9
:1001A000782900F07D80002070471FB59DE803008E
:1001B00000F0DAFC00F0E0F91FBD10B500F045FAE0
:1001C00010BD00F0A8FA1146FFF7EFFF02F082F928
:1001D00000F098FC03B4FFF7F0FF03BC00F036FE1C
:1001E0000948804709480047FEE7FEE7FEE7FEE7CB
:1001F000FEE7FEE7FEE7FEE7FEE7FEE70448054907
:10020000054A064B704700002D190008ED00000854
:10021000F8250020F82B0020F8270020F8270020E0
:100220000FB4044910B503AA029800F077F910BC86
:100230005DF814FBEC2400202DE9F0410E46044645
:10024000002020622046E168884730B3252805D089
:10025000D4E901219047206A401CF2E7E16820467A
:1002600000278847050018D0A5F14100192802D8B9
:1002700020354FF400673246294620462760FFF7B5
:100280008FFF40B1012804D0F61D26F0070608367E
:10029000D8E7361DD6E72846DAE7206ABDE8F081C0
:1002A00070B504460D4621461068AFF300802188E2
:1002B000090502D50F4A7A4402E00E4A7A440E320A
:1002C000002104F1240305E000F00F060009965D0B
:1002D0005E54491C0028F7D120780023000704D57C
:1002E000702D02D009B1022311322046BDE87040C2
:1002F00000F0BAB85635000040EA0103024630B5B6
:100300009B0710D14FF0013400E008C208C91D1B43
:100310009D4315EAC41FF8D013F0FF0102F8011B3A
:100320000DD01B0AF8E711F8013B002B02F8013B46
:1003300005D011F8013B002B02F8013BF3D130BD91
:1003400010B5431C02E010F8011B71B18107FAD10E
:100350004FF0013202C88C1A8C4314EAC211F9D052
:10036000C01A0A0603D0C01E10BDC01A10BD0A0470
:1003700001D0801E10BD0902FCD0401E10BD40EA15
:10038000010370B59B072ED14FF00136042A2AD302
:1003900008C810C99D1B9D43121F15EAC61517D02A
:1003A000D8B2E1B2401A50EA056110D198B2A1B2B8
:1003B000401A50EA05410AD123F07F4024F07F41E2
:1003C000401A50EA052102D1180EA0EB146070BD4E
:1003D000A342DBD018BA21BA884201D9012070BDEE
:1003E0004FF0FF3070BD0AB9002070BD10F8013B1E
:1003F00011F8014B63B1A3420AD1521E08D010F884
:10040000013B11F8014B1BB1A34201D1521EEDD1AA
:10041000181B70BD4FF0000200B513469446964677
:10042000203922BFA0E80C50A0E80C50B1F1200107
:10043000BFF4F7AF090728BFA0E80C5048BF0CC0B5
:100440005DF804EB890028BF40F8042B08BF704713
:1004500048BF20F8022B11F0804F18BF00F8012B85
:1004600070477047704770472DE9F0470D46994631
:100470009246044600F124080168880604D5E06924
:1004800021F01001216000E00120A84201DD471B9E
:1004900000E00027A1697A1902EB0900081AA0619F
:1004A0002078C00602D42046AFF30080002608E082
:1004B000D4E901211AF806009047206A401C761CF6
:1004C00020624E45F4DB2078C0060AD52046AFF303
:1004D000008006E0D4E9012130209047206A401CCA
:1004E0002062381EA7F10107F4DC07E0D4E90121FE
:1004F00018F805009047206A401C2062281EA5F1CC
:100500000105F3DC2046AFF300802078000602D519
:100510000220BDE8F0870120FBE70000074B70B523
:100520000D467B4400F011F80446284600F020F800
:1005300010B14FF0FF3070BD204670BDC71E0000E7
:1005400001694A1C02610878704700B58FB0CDE997
:1005500001310021059105497944CDE90310114687
:100560006846FFF769FE0FB000BD0000E5FFFFFF22
:10057000007B00F08000704710B542485421FFF71F
:1005800049FF41485421FFF745FF40485421FFF7F8
:1005900041FF3F493B483C4A3F4B08603D490A60A8
:1005A0003A491960531C0365481C10650120086511
:1005B0003B48344A39A1784400F008FA20B9384859
:1005C00078440A3800F0A7FA37482F4A35A1784412
:1005D00000F0FCF920B9344878440A3800F09BFA5E
:1005E00032482A4A2FA1784400F0F0F920B92F4868
:1005F00078440A3800F08FFA40232248DC000021BA
:10060000224600F0BFF920B125487844543800F064
:1006100082FA1D4822464023002100F0B3F920B1A0
:1006200021487844543800F076FA184822461023BE
:10063000002100F0A7F9002806D01C487844BDE846
:100640001040563800F067BA10BD104870B5006D04
:1006500020F001040B4800F02FFA0B4800F02CFAB0
:100660000A4800F029FA09E0206D20F00105204633
:1006700000F022FA204600F073F82C46002CF3D14B
:1006800070BD000098240020EC24002040250020AC
:10069000B0010020B4010020B80100207200000069
:1006A0007E320000770000006A32000056320000FF
:1006B0000EB5CDE90001FFF743FE02906946012027
:1006C000ABBE0EBD08B5694600900220ABBE08BDAA
:1006D0001FB58DE8070069460520ABBE04B010BD0C
:1006E0001FB58DE80F0069460620ABBEF6E708B5DA
:1006F000694600900920ABBE08BD1CB5CDE90001DC
:1007000069460A20ABBE1CBD704708B5694600901B
:100710000C20ABBE08BD754600F004FAAE460500DD
:100720006946534620F00700854618B020B5FFF70C
:1007300065FDBDE820404FF000064FF000074FF088
:1007400000084FF0000B21F00701AC46ACE8C009EF
:10075000ACE8C009ACE8C009ACE8C0098D467047F8
:1007600070B50446051F00F0E3F90068002C14BFC3
:10077000446870BD002C18BFAC423CBF2046646882
:10078000F8D301680A18AA4218BF456003D12A6845
:1007900005461144016028684119A1421CBF6C60E4
:1007A00070BD6168696021680844286070BD2DE9EA
:1007B000F04705460C46C86820F4201040F480003D
:1007C000C860800602D5084600F0FFFAE06841F2F2
:1007D00082014FF0FF390140022903D0204600F08A
:1007E0009DFAB5E000F42041B1F5004F0FD1C003F0
:1007F00006D56168E06A884200D80846606006E075
:100800002069E06260606069FFF77FFFA061A06817
:100810000022EEB200280DDAE1688B050AD4C0434D
:10082000A06041F490302260E0606068411C61602B
:100830000670A5E0E0689046226040F40050E06059
:10084000206968BB6069FFF752FF012704F12405A6
:10085000A0B1A08910F4407F08D0E06900F0B3F99E
:10086000206118B1E06840F4006016E0E76125619E
:10087000E06820F4407040F480600EE0E06900F031
:10088000A2F900282061F1D0E06840F4006010F483
:10089000407FE06002D140F48070E06020696060D9
:1008A000E06825696FF0010AC1051FD56168E06A3B
:1008B000884200D80846411B04D02246284600F052
:1008C00037FAF0BBE068010203D5E562C4E90158DC
:1008D00054E0691CE1626160E16940F48030491EC6
:1008E000C4E9021030462E70BDE8F087010202D53F
:1008F00000F480320AE06068411C61600670E068C4
:100900000A2E40F48030E06006D00022E16A606880
:10091000814203D90B4602E00122F7E70346A7898B
:100920005B1B7F0503D4E7699F4200DDE2B1814292
:1009300000D80146E5620F1AC4E90158002B09DD11
:1009400000E005E022461946284600F0F1F908B11A
:100950004846C9E747B1A069E5626560C01BA06170
:10096000E06840F01000E060E068000208D56168CF
:10097000A069E562491B08446560A0615046B3E781
:100980003046B1E770B5C468A50713D0650211D42D
:10099000B2F5807F09D0B2F5007F06D0B2F5806F46
:1009A00008D1012300F1240106E05D1E6FF07F46AF
:1009B000B54201D3012070BD0161C361416024F4DF
:1009C00070611143C160002070BD00002DE9F0414D
:1009D0000C4607461646104600F06EF82078611C5B
:1009E00061280AD0722802D077283CD102E0012584
:1009F000002405E00225042402E0082448F2020550
:100A000011F8010B2B2806D0622809D011F8010C2F
:100A100074280AD00BE045F0030544F00204EFE728
:100A200045F0040544F00104EAE744F010043846B8
:100A30002146FFF73DFE411C15D000213161716058
:100A40004FF40071F560F1617061200704D5304604
:100A50000222002100F0E6F8306D40F00100306520
:100A60003046BDE8F0810020FBE72DE9F0410D465E
:100A70000646104C206DC10704D0410804D020F078
:100A80000104F7E722460EE0542000F09CF807002E
:100A90000ED0206D47F001010843542120653846EF
:100AA000FFF7B8FC3A4629463046BDE8F0418DE7ED
:100AB0000020D6E7982400202DE9F04704464FF0A7
:100AC00000094FF0FF37C568D4E90486A80707D0AE
:100AD000204600F057F93046FFF7F4FD002802DA0F
:100AE0003846BDE8F087280502D54046FFF738FEB6
:100AF0004C212046FFF78EFC206D20F00100206580
:100B00004846EEE710B50446AFF300802046BDE846
:100B10001040FFF75FBB10B500F07EF9BDE8104054
:100B200000F074B900487047942500207047000019
:100B3000004870479C2500207047704770477047F9
:100B400038B504460A4600206946AFF30080002805
:100B500008BF38BD02460099204600F084F9012004
:100B600038BD012000F0D3B9F8B5AFF300800546D9
:100B700000200C46102000BF0646A819A0420DD93F
:100B8000324669460020AFF30080070008BF00F03E
:100B9000BEF90098A04218BF0546C419FFF7C8FF68
:100BA00005600746F01D20F007004619284600F0B2
:100BB00053F9B44208BFF8BDA21B31463868BDE8FE
:100BC000F84000F050B970B50646FFF7B1FF056870
:100BD00006F10B0020F00704B4429CBF002070BD5A
:100BE0002B466A68BAB11068A04210D304F108011C
:100BF00088423CBF5068586007D351681019416063
:100C00001168091B016058601460101D70BD134607
:100C10005268002AE7D121462846FFF791FF0028B5
:100C2000DED170BD2DE9F041044616460D464769F8
:100C3000007B80072ED03846FFF759FD50BB3EB3EE
:100C4000012E02D0022E25D104E0204600F025F925
:100C500005441DE03846FFF758FDE168002841F0E3
:100C60001001E16005DA204600F058F80120BDE8E7
:100C7000F081C9030BD56268E16A914200D8114640
:100C8000A26911442269891A814200DD084605449F
:100C9000002D01DA0220EAE7E16A6068E268814239
:100CA00006D29103E06203D522F4003141F0100234
:100CB000A6690027AE4213DCE16A814201D90B46E6
:100CC00000E0034603EB060C2369ACEB030CAC45D8
:100CD00006DD814201D98C4600E084469C4505D161
:100CE000A760276042F02000A5620DE0AD1BE66919
:100CF000AE1B8142A66000D90846C01A281A20609F
:100D00005819606022F0200003490840E06000208C
:100D100084F84870ABE70000BFCFD7FFC16821F46B
:100D2000001141F08001C1600021816001607047C5
:100D30002DE9F047814614460E464FF0FF38324801
:100D4000D5685769054209D03846A169FFF7D5FC37
:100D5000002811DB2C48C0430540E5602B46324695
:100D600049463846FFF7B4FCA16920F00042B21AA8
:100D700011440028A16103D02046FFF7CFFF404671
:100D8000BDE8F08770B504460569C06A61688842AD
:100D900000D80846E16821F42011E160C90312D5AA
:100DA000A84208D02246411B2846FFF7C1FF10B1D8
:100DB0004FF0FF3070BD0020E562C4E90150E068EB
:100DC00020F48030E060002070BD10B50446C0689B
:100DD00020F02000E060A16AA06988420DD0204682
:100DE000FFF7D0FFE06820F4405040F01000E060D2
:100DF000A06AA0612069E062606044F24001E0689E
:100E00008843E06010BD000010000200002801D0FF
:100E100000F01CB87047000010B5014602A000F0B9
:100E20005DF8012010BD000053494752545245441B
:100E30003A2052656469726563743A2063616E2773
:100E400074206F70656E3A20000000000149182080
:100E5000ABBEFEE72600020000210160C0E90110E0
:100E6000704710207047034640688C46002818BF22
:100E700088423CBF03464068F8D31868184488424B
:100E800007D00CF1030020F00700001D411A521A90
:100E90000146081D0A60FFF763BC10B50146C26831
:100EA000900703D0900607D5886A0AE000F03EF864
:100EB00001210160881E10BD8B69486818440B69C8
:100EC000C01A91F848301BB191F84910401A10BD72
:100ED0001103FCD50028FADD401E10BD70B5054693
:100EE0000C460A2000E06D1C00F018F835B1287897
:100EF0000028F8D102E0641C00F010F814B120784A
:100F00000028F8D1BDE870400A2000F007B810B5FD
:100F100000F010F8BDE81040FFF778BF08B569464B
:100F20008DF800000320ABBE08BD000000487047EC
:100F30009425002010B5012805D0002103A0FFF75B
:100F4000CDFF012010BD09A1F8E700005349475229
:100F5000544D454D3A204F7574206F662068656189
:100F600070206D656D6F7279000000003A20486551
:100F70006170206D656D6F727920636F727275702C
:100F80007465640030B5044604254FF4302000F049
:100F90006FF80546042D17D10C48006940F0020097
:100FA0000A49086108464461006940F04000086150
:100FB0004FF4302000F05CF805460448006941F623
:100FC000FD71084001490861284630BD00200240FB
:100FD00004200B49C96801F0010109B101200EE0AC
:100FE0000749C96801F0040109B1022007E004497A
:100FF000C96801F0100109B1032000E00420704726
:10100000002002400348006940F080000149086167
:10101000704700000020024070B504460D460426CB
:10102000F00200F025F80646042E11D109480069A7
:1010300040F00100074908612580F00200F018F82F
:1010400006460448006941F6FE71084001490861FE
:10105000304670BD00200240024803494860034802
:10106000486070472301674500200240AB89EFCDFF
:1010700000B502460423FFF7ABFF034603E0FFF78A
:10108000A7FF0346521E012B01D1002AF7D102B956
:101090000523184600BD2DE9F04102460025002633
:1010A000002000230024002791F803C00CF00F0556
:1010B00091F803C00CF0100CBCF1000F03D091F8B4
:1010C00002C04CEA050591F800C0BCF1000F31D018
:1010D000146800202BE04FF0010C0CFA00F3B1F87B
:1010E00000C00CEA03069E4220D183004FF00F0C93
:1010F0000CFA03F7BC4305FA03FC4CEA040491F82C
:1011000003C0BCF1280F06D14FF0010C0CFA00FC13
:10111000C2F814C00AE091F803C0BCF1480F05D131
:101120004FF0010C0CFA00FCC2F810C0401C08285B
:10113000D1D31460B1F800C0BCF1FF0F34DD5468A6
:1011400000202EE000F1080C4FF0010808FA0CF323
:10115000B1F800C00CEA03069E4221D183004FF093
:101160000F0C0CFA03F7BC4305FA03FC4CEA040429
:1011700091F803C0BCF1280F05D100F1080C08FA62
:101180000CF8C2F8148091F803C0BCF1480F07D1E5
:1011900000F1080C4FF0010808FA0CF8C2F81080B2
:1011A000401C0828CED35460BDE8F08102460020E0
:1011B00093680B400BB1012000E0002070474161B3
:1011C00070470161704700004CF6CC40014908604F
:1011D00070470000003000404AF6AA20014908602C
:1011E000704700000030004001494860704700002F
:1011F0000030004001498860704700000030004026
:1012000001490860704700000030004008B54FF405
:101210000050ADF8000010208DF8030003208DF879
:10122000020069460148FFF736FF08BD0010014083
:101230002DE9F84F002600F04FFA06464B48B6FB62
:10124000F0F44FF4FC68404601F02AF900F26D100A
:10125000A04211D809E0404601F022F900F26D10D9
:10126000241A08F101001FFA80F8404601F018F92D
:1012700000F26D10A042EED90127B9463C48007833
:10128000401EA04227D2781CC7B239480078241AE1
:10129000012518E0012D09D1404601F001F928B1DE
:1012A0001D2C0FD91D3C781CC7B20BE03048405DA7
:1012B000401EA04205D22E48405D241A781CC7B2B9
:1012C00000E002E06D1C0C2DE4DB00BF09EB040024
:1012D00000F0FF0906E001270CB9B94602E0601CE6
:1012E00000F0FF092148B6FBF0F100FB11644FF458
:1012F0006160B4FBF0F000F0FF0B4FF46160B4FBF1
:10130000F0F100FB11403C21B0FBF1F000F0FF0ACE
:101310004FF46160B4FBF0F100FB11403C21B0FBE5
:10132000F1F201FB120000901248A0F860804FF427
:101330007F4000EA072009F0FF0108430D49A1F8AA
:1013400062004FF47F4000EA0B2040EA0A00A1F857
:1013500064000098C0B2A1F86600300CC8800E810D
:101360000248B6FBF0F04881BDE8F88F80510100DB
:10137000043800083C0300202DE9F05F07460D46C5
:1013800090469A46DDF828B000244FF4FC69B7F582
:10139000FC6F02DA0120BDE8F09F4F450FDD0CE045
:1013A000484601F07DF810B13448044401E0344867
:1013B000044409F101001FFA80F9B945F0DB012D61
:1013C00001DB0C2D01DD0120E5E7012D15DD0026F7
:1013D00010E02C48805D40F2A321484304EBC01488
:1013E000012E05D1384601F05BF808B126480444C7
:1013F000701C86B2681EB042EBDCB8F1010F04DB52
:10140000681E2049085C404501DA0120C3E7A8F1C5
:1014100001001D4901FB0044BAF1170F01DD012055
:10142000B9E7CAEB4A10C0EB0A2004EB0014BBF189
:101430003B0F01DD0120AEE7CBEB0B1004EB80048A
:101440000B983B2801DD0120A5E70B9804440121FE
:101450004FF0C05000F07AF8012000F071F82046FB
:1014600000F044F900F050F94FF6FF7000EA144024
:10147000064908824C8200208DE700000085E201C9
:101480008033E10104380008805101003C03002052
:1014900008B54FF4A06000F049F825208DF8000051
:1014A00000208DF8010002208DF8020001208DF847
:1014B0000300684600F002F808BD000070B5002186
:1014C00000230F22C47804B3154C246804F4E064AC
:1014D000C4F5E064210AC1F10403CA40447804FA67
:1014E00003F184781440214309010E4C0678A1557C
:1014F000047804F01F050124AC4005786D11AD009F
:1015000005F1E025C5F8004109E0047804F01F0565
:101510000124AC40044D0678761145F8264070BD94
:101520000CED00E000E400E080E100E0024901434E
:10153000024A1160704700000000FA050CED00E05F
:10154000014908627047000000000E4229B1064AB6
:10155000D2690243044BDA6104E0034AD269824350
:10156000014BDA61704700000010024029B1064AC1
:1015700092690243044B9A6104E0034A92698243F0
:10158000014B9A6170470000001002400348406A16
:1015900040F080700149486270470000001002402E
:1015A00030B500210022002400232D4D6D6805F088
:1015B0000C0121B1042905D0082923D105E0294DCA
:1015C000056022E0274D05601FE0254D6D6805F49C
:1015D0007012234D6D6805F48034022505EB9242AC
:1015E0001CB9214D554305600BE01D4D6D6805F498
:1015F00000351DB11C4D5543056002E0194D5543A2
:10160000056002E0174D056000BF00BF144D6D6816
:1016100005F0F0010909154D6B5C0568DD4045607A
:101620000F4D6D6805F4E061090A104D6B5C45686B
:10163000DD4085600A4D6D6805F46051C90A0B4DA7
:101640006B5C4568DD40C560054D6D6805F4404143
:10165000890B074D6B5CC568B5FBF3F5056130BDC3
:101660000010024000127A0000093D00990100209C
:10167000A901002010B501460022002300204A11D4
:10168000012A02D1094C236806E0022A02D1074C44
:10169000236A01E0054C636A01F01F0201249440B3
:1016A0001C400CB1012000E0002010BD00100240E1
:1016B0000348008840F0100001490880704700008E
:1016C00004280040034800884FF6EF7108400149A4
:1016D0000880704704280040002103480188001F4B
:1016E000008841EA004070471C28004000B50246CF
:1016F000FFF7DEFF100C03490880091D0A80FFF781
:10170000E1FF00BD1828004000BF0348008800F03A
:1017100020000028F9D070470428004000B587B0A9
:1017200001210803FFF722FFE020ADF804000120AB
:101730008DF8060018208DF8070001A91348FFF75F
:10174000AAFC0020ADF808004FF48270ADF80A0042
:101750000020ADF80C00ADF80E00ADF810004FF40D
:101760000070ADF812000820ADF814000020ADF8AC
:1017700016000720ADF8180002A9054800F040F84F
:101780000121034800F022F807B000BD0008014025
:101790000030014010B5044600BF02210A4800F0A5
:1017A00021F80028F9D02146074800F027F800BFAB
:1017B0000121054800F016F80028F9D0024800F091
:1017C0001AF8C0B210BD00000030014021B10288FB
:1017D00042F04002028004E002884FF6BF731A40D4
:1017E000028070470246002013890B400BB1012094
:1017F00000E000207047014688897047818170476A
:1018000010B50022028802F441520B884C88234311
:101810008C882343CC8823430C8923434C8923435E
:101820008C892343CC8923431A430280838B4FF254
:10183000FF74234083830B8A038210BD10B500F030
:1018400001F810BD0CB500200190009033480068ED
:1018500040F480303149086000BF3048006800F42F
:10186000003000900198401C0190009818B9019830
:10187000B0F5A06FF1D12948006800F4003010B134
:101880000120009001E0002000900098012843D141
:101890002348006840F010002149086008460068AD
:1018A00020F0030008600846006840F0020008606D
:1018B0001A48406819494860084640684860084628
:1018C000406840F4806048600846406820F47C101E
:1018D00048600846406840F4E810486008460068E0
:1018E00040F08070086000BF0C48006800F0007095
:1018F0000028F9D00948406820F0030007494860F3
:101900000846406840F00200486000BF0348406855
:1019100000F00C000828F9D10CBD000000100240B6
:101920000020024010B500F01FFA10BD10B513489A
:10193000006840F0010011490860084640681049FD
:1019400008400E494860084600680E4908400B49A7
:1019500008600846006820F4802008600846406857
:1019600020F4FE0048604FF41F008860FFF766FF18
:101970004FF000600449086010BD000000100240F4
:101980000000FFF8FFFFF6FE08ED00E010B540F2A2
:101990002551094800F02BF808B101F0D7FE40F2BC
:1019A0002771054800F023F828B1002240F2277182
:1019B000014800F046F810BD0038014021B182898D
:1019C00042F40052828104E082894DF6FF731A408E
:1019D0008281704702460020B1F5007F00D100BF30
:1019E00013880B400BB1012000E00020704770B558
:1019F0000246002400230025002040F66A16B1426A
:101A000000D100BFC1F3421501F01F03012606FA01
:101A100003F3012D02D19689334006E0022D02D155
:101A2000168A334001E0968A33400C12012606FAEA
:101A300004F41688344013B10CB1012000E00020FA
:101A400070BDF0B50346002400260025002040F6B6
:101A50006A17B94200D100BF1846C1F3421401F021
:101A60001F06012707FA06F5012C01D10C3004E00E
:101A7000022C01D1103000E014301AB107682F4356
:101A8000076002E00768AF430760F0BD2DE9F0474B
:101A900086B005460E460024A24600BFA146002798
:101AA000B08900B100BF2F462C8A4CF6FF7004406D
:101AB000F08804432C82AC894EF6F3100440B088C1
:101AC00031890843718908430443AC81AC8A4FF6DD
:101AD000FF400440B0890443AC8201A8FFF760FDD9
:101AE0001F48874202D1DDF810A001E0DDF80CA00C
:101AF000A88900F4004040B10AEBCA0000EB0A10CC
:101B000031684900B0FBF1F807E00AEBCA0000EBCE
:101B10000A1031688900B0FBF1F86420B8FBF0F0DE
:101B200004012009642101FB1089A88900F4004008
:101B300040B1322000EBC900B0FBF1F000F007002B
:101B4000044308E0322000EB09106421B0FBF1F0FF
:101B500000F00F0004432C8106B0BDE8F0870000C0
:101B60000038014001468888C0F308007047C1F37F
:101B7000080282807047000000B585B0012188030B
:101B8000FFF7F4FC4FF40070ADF8000018208DF85A
:101B9000030003208DF8020069461948FFF77BFA1D
:101BA0004FF48060ADF8000004208DF80300694612
:101BB0001348FFF770FA4FF4165001900020ADF86B
:101BC0000800ADF80A00ADF80C00ADF810000C20CC
:101BD000ADF80E0001A90B48FFF758FF012240F2B3
:101BE00025510848FFF72DFF012240F227710548D3
:101BF000FFF727FF01210348FFF7E0FE05B000BD16
:101C0000000801400038014010B500200D4908705F
:101C10007D20FFF72FFD20B1FFF7B8FC0120094917
:101C2000087045F25550FFF7EBFA0320FFF7DCFA96
:101C30004FF4FA70FFF7DEFAFFF7CEFAFFF7C4FAB7
:101C400010BD00003801002070B504460025204674
:101C500001F098FD08B9FF2070BD07E020782F281B
:101C600001D1641C0CE0681CC5B2641C207838B13A
:101C70000A2D05DA20782C2802DD20787B28EDDB80
:101C800000BF20783A2806DA20782F2803DD207854
:101C90003038C0B2E0E7FE20DEE710B501F06CFCA2
:101CA000FFF7F6FBFFF768FF00F034F8FFF7AEFA36
:101CB000FFF734FDFFF7A8FF10BD0020704730B5D7
:101CC00004460B460021012A03D11131A3F108007B
:101CD0000144022A03D1891DA3F10800014406E052
:101CE0006078257840EA05200144A41C9B1E012B46
:101CF000F6D813B1207801EB002102E088B200EBA6
:101D00001141080C0028F9D14FF6FF7581EA050052
:101D100030BD000008B510208DF8030003208DF8B9
:101D200002000E20ADF8000069460E48FFF7B3F937
:101D30001020ADF8000004208DF803006946094822
:101D4000FFF7A9F90120ADF8000004208DF8030089
:101D500069460448FFF79FF90E210248FFF731FA60
:101D6000002008BD0008014000200EE0084901EBFA
:101D7000C001496841B1064901EBC0014968491EEB
:101D8000034A02EBC0025160401C2028EED370478A
:101D9000BC01002070B504466548006840F400703E
:101DA00063490860FF220021104600F035FA002048
:101DB000604908600021082000F004FA0021092091
:101DC00000F000FA00210C2000F0FCF900210D20A9
:101DD00000F0F8F9FE210A2000F0F4F919210B2097
:101DE00000F0F0F9FF21042000F0ECF919210520A2
:101DF00000F0E8F9FF21062000F0E4F91F21072098
:101E000000F0E0F9B021382000F0DCF93F21282073
:101E100000F0D8F93021292000F0D4F9F921302040
:101E200000F0D0F9F721312000F0CCF90D21C020CD
:101E300000F0C8F90021C12000F0C4F93322C2210A
:101E4000802000F0E9F91221C62000F0BBF90C2136
:101E5000C72000F0B7F91221C42000F0B3F9DC214B
:101E6000CA2000F0AFF90521CB2000F0ABF92178B2
:101E7000E42000F0A7F96178E52000F0A3F9A1784B
:101E8000E22000F09FF9E178E32000F09BF921794E
:101E9000E02000F097F96179E12000F093F9E42067
:101EA00000F026F90546294623A0FEF7B9F9E520FA
:101EB00000F01EF90546294623A0FEF7B1F9E220FD
:101EC00000F016F90546294623A0FEF7A9F9E320FC
:101ED00000F00EF90546294623A0FEF7A1F9E020FF
:101EE00000F006F90546294623A0FEF799F9E120FE
:101EF00000F0FEF80546294623A0FEF791F94FF4BD
:101F00008071002000F0DBF84FF48071102000F0A9
:101F1000D6F81F2000F03CF9C0221B21802000F0E1
:101F20007BF904221F21802000F076F970BD0000AB
:101F30000C140140400100204D4141445235203DE8
:101F400020307825780D0A004D4141445234203D1F
:101F500020307825780D0A004D4141445233203D10
:101F600020307825780D0A004D4141445232203D01
:101F700020307825780D0A004D4141445231203DF2
:101F800020307825780D0A004D4141445230203DE3
:101F900020307825780D0A002DE9F04105460F46DE
:101FA000392000F0A5F810B90020BDE8F0812948DB
:101FB0000178002000F006F926480088C0F30721C8
:101FC000012000F0FFF800213A2000F0BBF8214981
:101FD000086000213A2000F0B5F81E49096841EA7E
:101FE00000201C49086000213A2000F0ABF80446AC
:101FF00000213A2000F0A6F844EA0024241F002122
:102000003A2000F09FF8064600213A2000F09AF8A6
:1020100046EA0026681EA04200D26C1E06F0800030
:1020200008B9002403E03946204600F06BF809485F
:1020300001780C2000F0C6F806480088C0F307219C
:102040000D2000F0BFF840221E21802000F0E4F8AF
:102050002046AAE74001002070B504460D46FF2146
:10206000022000F0AFF81921032000F0ABF8FF20A8
:102070002044C1B2062000F0A5F841F6FF1020442C
:10208000C0F30721072000F09DF8002211467A20B6
:1020900000F0C2F82946204600F0A0F808221F21CF
:1020A000802000F0B9F81C2000F022F800F00200B7
:1020B00020B108221F21A02000F0AEF870BD70B53D
:1020C00005460C462946D42000F07CF8E1B2D62023
:1020D00000F078F8C4F30721D72000F073F800BFB0
:1020E000EA2000F005F800F001000028F8D170BDEA
:1020F00010B50446204600F04BF82146002000F0C1
:1021000021F810BD70B505460C460D48006820F456
:1021100000700B4908603A20FFF73CFB05E06D1E9C
:102120000020FFF737FB2070641C002DF7D1002042
:1021300020700348006840F400700149086070BDD9
:102140000C14014070B505460C4600260F48006887
:1021500020F400700D49086004F01F0040EA0506F5
:102160003046FFF717FBFF20FFF714FB064604F08D
:10217000800018B1FF20FFF70DFB064603480068FA
:1021800040F4007001490860304670BD0C140140F5
:1021900010B5044604F060000949097888420ED061
:1021A00003221F21A02000F037F8C4F341121F21A1
:1021B000802000F031F804F060000149087010BD83
:1021C0003C01002070B504460D462046FFF7E0FFB5
:1021D0002A462146402000F01FF870BD70B5044625
:1021E0000D460C48006820F400700A4908607A2007
:1021F000FFF7D0FA04E0641E2878FFF7CBFA6D1CD5
:10220000002CF8D10348006840F4007001490860D0
:1022100070BD00000C1401402DE9F04104460D464C
:10222000164600270C48006820F400700A49086030
:1022300005F01F0040EA04073846FFF7ABFA3746BF
:102240003846FFF7A7FA0448006840F400700249D6
:102250000860BDE8F08100000C14014010B5044690
:1022600004F007017520FFF7ADFF10BD10B5024661
:102270000B460021292B01D2002010BD107B08281D
:1022800002D1507B062801D00020F6E70AE001F1D8
:102290002600105C054C645CA04201D00020ECE7F5
:1022A000481CC1B20429F2DB0120E6E74B01002003
:1022B00010B502460B4600212A2B01D2002010BD8A
:1022C000107B082801D1507B08B10020F7E7907BF4
:1022D000452801D00020F2E70AE001F11E00105C61
:1022E000054C645CA04201D00020E8E7481CC1B264
:1022F0000429F2DB0120E2E74B01002030B504465F
:1023000000202076607640202075002060754020F7
:10231000A0750022142104F10E00FFF7D0FC054641
:10232000280A2076657630BD10B5034605E014789E
:1023300001F136001C54491C521C10780028F6D1BB
:10234000084610BD10B5034603E001F136001C54E9
:10235000491C12F8014B002CF7D1084610BD0000B3
:1023600010B5FEF779FE0A48FEF70CFE00240AE0DD
:10237000084A32F81410064A022303FB0420FEF731
:102380004BFE601C84B2202CF2DBFEF73BFE10BD3E
:10239000000001083C18002070B50025FEF75CFE27
:1023A0001048FEF7EFFD00BF40240FE00E4A32F860
:1023B00014100C4A022303FB0420FEF72DFE0A48EA
:1023C00030F81400284485B2601C84B27F2CEDDB09
:1023D000A9B2044A022303FB0420FEF71DFEFEF708
:1023E00011FE70BD009001083C0300208A68002A9D
:1023F00001DCFEF7DCB9521E8A604A68C0B2531C89
:102400004B601070704700000448006818B1044821
:102410000068223070470020FCE7000054010020D3
:102420005001002030B5034600200A4C227004E021
:102430000C5C094D2C54441CE0B20428F8DB00204D
:1024400004E01C5C054D2C54441CE0B20628F8DB6B
:1024500030BD0000440100204B0100204501002058
:10246000027C417C62F31F210B4A1160114609680E
:102470001439116090F82E1009118900074A116073
:10248000054909681268891A034A116011460968EA
:1024900009B900211160704754010020500100204B
:1024A0000146CA1701EB92729210A1EB82022AB97F
:1024B000642291FBF2F302FB131232B94FF4C8729B
:1024C00091FBF2F302FB13120AB9012070470020BE
:1024D000FCE700004FF6FF701C49086000201C4913
:1024E00008801C4908801C4908701C490870FFF7C7
:1024F000D4FB1B48FFF74EFC00F052FE19481A4966
:1025000088671A4888621A48C1F8A0001948086507
:102510004FF4FA611448C167C16241F28831C0F8D2
:10252000A4104FF47A71416532201349C8630A2020
:10253000486140F6B830086505208862FEF778FEED
:1025400003E0FEF749FE00F0C5FDFAE718010020A0
:102550001C0100201E01002029010020280100206C
:102560002A010020DD350008BC010020D936000812
:1025700081360008D5310008BC02002070B5054640
:102580000024284600F04CF80020287502206875C9
:102590000BE004F11600295C0A3029540E48015D55
:1025A00004F116002954601CC4B2062CF1DB00248F
:1025B0000BE004F11C00295C0A3029540748015D36
:1025C00004F11C002954601CC4B2042CF1DB294620
:1025D0002A20FFF741FD70BD450100204B0100207E
:1025E00070B504460D46204600F01AF8204600F06B
:1025F00029F8002084F8220094F82400F72804DD4C
:1026000094F82500401C84F8250094F82400083034
:1026100084F8240021462846FFF71EFD70BD000007
:102620000146002008E0821D8A5C0A54044A135CBB
:10263000821D8B54421CD0B20628F4DB7047000088
:102640004501002030B5054600240BE004F11A00D6
:10265000295C001D29540648015D04F11A00295423
:10266000601CC4B2042CF1DB2846FFF747FE30BDE6
:102670004B01002070B504462046FFF7D1FF102023
:1026800084F82F001448006830B90123002219464D
:10269000204600F06FF806E0012300220E48016892
:1026A000204600F067F82825280A20746574204623
:1026B000FFF7C8FF02221C2104F11A00FFF7FFFAFE
:1026C0000546280A84F8320084F833502146362023
:1026D000FFF7C2FC70BD00005401002070B5044635
:1026E0000D46192084F82F0005F12806300A2074C1
:1026F00066742046FFF702FE002084F8320084F85A
:10270000330005F11C01022204F11A00FFF7D7FA89
:102710000646300A84F8320084F8336005F136004A
:102720002146FFF799FC70BD70B504462046FFF7BF
:1027300077FF002020742C2060742046FFF782FF72
:10274000122084F82F00002301221146204600F0B9
:1027500011F80222202104F11A00FFF7B0FA054611
:10276000280A84F8320084F8335021463A20FFF7D3
:1027700073FC70BDF0B50C46002109E001F12206A2
:10278000875DB61C87550027B61E87554E1CF1B2D3
:102790000229F3DB204E367880F82360042112E012
:1027A00001F12506865D344401F12906855D8455D5
:1027B00013B1361F855503E0002701F12506875523
:1027C000240A4E1EF1B20029EADC73B9002600F893
:1027D000266F4670114E367886700026C6702638F1
:1027E0000E4E3678B61C0D4F3E70002680F83260D3
:1027F00080F8336062B102262E30067204264672DB
:10280000052686728026C672602600F82E6902E0D0
:10281000502680F82E60F0BD4401002058010020B1
:102820002DE9F0470446894615461F4600262046F6
:10283000FFF7F6FEDC2D00DDDC250020207405F11D
:102840001C0060742046FFF7FDFE380A04F8240FD0
:1028500067700020A07005F10800E0700020207172
:102860006071243C06E019F8061006F12A00215494
:10287000701CC6B2AE42F6DB05F11001012204F174
:102880001A00FFF71CFA80464FEA182084F8280047
:1028900084F8298005F12A002146FFF7DDFBBDE819
:1028A000F087000010B5D548807800287DD1D34846
:1028B000C07801287AD1D148807900F080000028C2
:1028C00047D000240FE0092000EB4400CB49095C0D
:1028D000082000EB4400C94A105C01EB0020C84905
:1028E00021F81400641CC5484179007901EB0020EF
:1028F000A042E8DCC1494B79097903EB01218AB296
:10290000BE49CB79897903EB012188B2BC4900F03B
:1029100047FFBA494B79097903EB01218AB2B749DC
:10292000CB79897903EB012188B2B64900F06CFBC1
:10293000B248C379807903EB002082B2AF48437973
:10294000007903EB002081B2AE4B022000F000FAC8
:1029500052E1AA4840790028FADD00246DE0AA4837
:10296000008C4AF25A51884226D0A748008C45F67E
:102970000A21884207D1A148C179807901EB002062
:102980002044602818DBA048008C4EF60571884270
:1029900007D19A48C179807901EB00202044402872
:1029A0000ADB9648C179807901E022E14AE001EB37
:1029B0000020204430283FDA610009318F4A525C00
:1029C000610008318D4B595C02EB01218AB2194636
:1029D000CB79897903EB01210819C11700EB9151DB
:1029E0008912A0EB8121884B23F811208348C179FB
:1029F000807901EB002020443F280ADD7F48C1791F
:102A0000807901EB00202044802802DA01207F49F0
:102A100008707A48C179807901EB002020442F2882
:102A20000ADD7648C179807901EB00202044342802
:102A300002DA012076490870641C70484079A0428F
:102A40008DDCD9E06D48C07802287DD16B48807953
:102A500000F0800020B369494B79097903EB01212B
:102A60008AB26649CB79897903EB012188B2694939
:102A700000F0CAFA6148C379807903EB002082B282
:102A80005E484379007903EB002081B2614B02205C
:102A900000F05EF90A2CD4D101205F490870ABE048
:102AA000564840790028CCDD002443E05B4800789C
:102AB00060B15248C179807901EB0020204452492D
:102AC00031F81000534921F8140032E04E48008CD0
:102AD0004AF25A51884205D04B48008C45F60A21EB
:102AE00088420CD14548C179807901EB002020440F
:102AF000454931F81000474921F8140019E03F48D2
:102B0000C179807901EB002020445F280CDA3B4832
:102B1000C179807901EB002020443B4931F8100055
:102B20003C4921F8140004E04FF6FF70394921F8C0
:102B30001400641C31484079A042B7DC2F48C379A7
:102B4000807903EB002000E00BE082B22B48437950
:102B5000007903EB002081B22E4B022000F0F8F840
:102B60004AE02648C078032822D116222C4948F290
:102B7000080000F049FA002029498885002408E06F
:102B80002748808D264931F8141008442449888547
:102B9000641C162CF4DB03201F490870FFF7E0FBD0
:102BA000174B48F208020021032000F0D1F823E07F
:102BB0001248C07804281BD1002406E0194931F8D6
:102BC00014000F4921F81400641C402CF6DB0B485C
:102BD000C379807903EB002082B2084843790079F9
:102BE00003EB002081B2064B022000F0B1F803E0B5
:102BF00002E001200849087010BD00003C130020CD
:102C00009C1C00209C1D00203C030020260100206D
:102C1000270100203C140020290100202801002069
:102C20003C1800200000010810B5454840794FF4D9
:102C3000404101EB4000093042490988884223D0D5
:102C4000404800884CF2091188421DDC3C48C0789D
:102C5000022805D13B4800884CF20901884213D074
:102C60003748C078032805D1364800884CF209015E
:102C7000884209D03248C078052818D131480088E8
:102C80004CF20901884212D12F4830490988405C32
:102C90002C490988C1F30B01294A5054FFF70DF85C
:102CA00008B9FFF7FFFD00202649088031E02548DC
:102CB000008800F47040B0F5404F0AD12248234903
:102CC0000988405C1F490988C1F30B011C4A505414
:102CD0001FE01C48008800F4004068B11A481B49F6
:102CE0000988405CA52807D14CF2010015490880ED
:102CF000A520134948700CE0134814490988405C2A
:102D00005A2806D14FF400400E4908805A200C4939
:102D100008700C480088401C0A49088000200A49B5
:102D20000A4A1288885409480088401C07490880CC
:102D300008460088B0F5006F01D10020088010BD62
:102D40003C130020200100203C0B00201E0100202D
:102D50002DE9F043ADF2044D07460D4690461E4660
:102D60004FF000094FF4806101A8FDF753FB5A2092
:102D70008DF80400A5208DF80500380A8DF80600AE
:102D8000F8B28DF80700280A8DF80800E8B28DF82F
:102D900009004FEA18208DF80A0008F0FF008DF8AE
:102DA0000B0000240EE03088000A082101EB4401EA
:102DB00001AA50543078092101EB44015054B61C4B
:102DC000601C84B2AC42EEDB4FF0000900240DE041
:102DD0006000401C01A9095C01AA12F8140001EB73
:102DE000002048441FFA80F9601C84B2281D8442E8
:102DF000EEDB4FEA1920082101EB450101AA5054EE
:102E0000092101EB450102F8019000240DE001A821
:102E1000015D0A48FEF7ABFE00BF40210748FEF700
:102E2000D9FD0028F9D0601C84B20A2000EB4500CF
:102E3000A042ECDC0DF2044DBDE8F0830038014007
:102E400070B506460C462DA200213046FFF77AFAEF
:102E500005463AA229463046FFF774FA054641A2D4
:102E600029463046FFF76EFA054634B142A229469C
:102E70003046FFF767FA054605E048A22946304686
:102E8000FFF760FA054646A229463046FFF75AFA90
:102E90000546484A29463046FFF746FA0546464A5F
:102EA00029463046FFF740FA054644A229463046F7
:102EB000FFF748FA05463F4A29463046FFF734FAFD
:102EC00005463D4A29463046FFF72EFA054634B1FD
:102ED00044A229463046FFF735FA054605E045A2EB
:102EE00029463046FFF72EFA0546464A294630461F
:102EF000FFF728FA0546284670BD00004854545094
:102F00002F312E3020323030204F4B0D0A436F6E60
:102F100074656E742D547970653A20746578742FD9
:102F200068746D6C0D0A507261676D613A206E6F46
:102F30002D63616368650D0A0D0A00003C6831204D
:102F4000616C69676E3D63656E7465723E4C435398
:102F50004F54B2E2CAD4D2B3C3E63C2F68313E3CF0
:102F600068723E003C63656E7465723E3C703ED78D
:102F7000B4CCAC3A200000003C666F6E7420636FE6
:102F80006C6F723D2223303046463030223E20BFE7
:102F9000AA3C2F666F6E743E00000000B9D8000096
:102FA000203C736D616C6C3E3C6120687265663DCF
:102FB000220000006601002084010020223E5BCB3D
:102FC000A2D0C25D3C2F613E3C2F736D616C6C3EA4
:102FD0003C2F703E0A3C703E3C6120687265663D45
:102FE000220000002F30223EB9D8B1D53C2F613EDF
:102FF0003C703E002F31223EBFAAC6F43C2F613EFA
:103000003C703E00943800082DE9F04106460C461D
:1030100015464FF0000802211648FEF7D2F80221AB
:103020001448FEF7CCF845F6A52000F097F80220EA
:1030300000F094F8284600F091F8304600F08EF841
:1030400045F6A720284430441FFA80F8002708E0FE
:1030500000F012F82080208840441FFA80F8A41C59
:103060007F1C681C8742F3DB02210248FEF7A9F8A7
:10307000BDE8F0810008014070B50025052400E09E
:10308000641E002CFCDC002418E04FF6FF7000EA00
:103090004505052400E0641E002CFCDC10210C48D2
:1030A000FEF784F800F0010010B145F0010502E0E0
:1030B0004FF6FE70054000F02DF8641C102CE4DB88
:1030C000052400E0641E002CFCDC284670BD0000D6
:1030D0000008014010B5002414E00C4850F83400FA
:1030E00078B10A4800EBC400406850B9074951F86C
:1030F00034008047064850F82400044901EBC4011D
:103100004860641C202CE8D310BD0000BC010020E6
:10311000BC02002010B5052400E0641E002CFCDC7D
:1031200004210D48FEF74BF804210B48FEF749F83F
:1031300004210948FEF743F804210748FEF73FF849
:1031400004210548FEF73BF8052400E0641E002C2E
:10315000FCDC002010BD00000008014070B50446F2
:10316000002500BF15E004F40040B0F5004F04D185
:1031700008210A48FEF725F803E008210748FEF772
:103180001EF8FFF7C7FF4FF6FF7000EA4404681C03
:1031900085B2102DE7DB002070BD00000008014063
:1031A00010B50948FEF7F6FD0848027808490648B8
:1031B000FFF738F940F2A4711420FEF780FF0220D7
:1031C000FFF74CF810BD00005C0100207C010020DE
:1031D0006201002010B5A94940F2DC50FEF7DCFE88
:1031E000A749086008460168A448FFF73FF810B1F6
:1031F000A248FFF7C3F9A2480168A048FFF758F8B2
:103200009E48C07D012809D19C4890F822000828DA
:1032100004D19B4801689948FFF7E2F99748C07DBF
:1032200006287DD1954890F824000028F9D19348CC
:1032300090F82500934909688842F2D18F4890F8A8
:103240002F0000F0020010B18C48FFF76DFA8B4898
:1032500090F82F0000F01000002861D08748FFF799
:10326000FFF8FFF7D1F8884908600846006840B9C0
:10327000824890F82F0000F0010010B17F48FFF75E
:10328000F9F97E48804A1268811804227FA0FDF770
:1032900076F838B17FA200217848FFF753F87849D3
:1032A000086054E0754A78480068001D1118022231
:1032B00087A0FDF764F8F8B986A200216F48FFF7F0
:1032C00041F86F4908608FA2084601686B48FFF714
:1032D00039F86B4908608E4A084601686748FFF76D
:1032E00023F8674908608BA2084601686348FFF726
:1032F00029F8634908602AE0604A63490968491D62
:103300005018FEF7A1FC8749087008460078401C59
:1033100048B9854A00215948FFF714F8584900E098
:103320001DE0086013E07F480078012801D17F4943
:1033300008707C48007810B900207C4908707B48F0
:1033400001784E48FFF77CFD4D49086000BF4B48AF
:10335000FFF790F94A4801684848FFF7BFF9474826
:10336000C07D112871D1454890F824000428F9D176
:10337000424890F82500B0287DD1404890F82700B9
:1033800008386B4908703D482A3000F0FBF90028E6
:1033900061D000206749087011E066480078401C41
:1033A00064490870084600782A303449085C2C28A3
:1033B00005D160480078401C5E49087005E05D4812
:1033C00000785B4909788842E7DB00BF59480078FC
:1033D00002280DDB56480078C01E564909788842FD
:1033E00006DB544800782B302449085C3D2804D083
:1033F00051A15448FCF780FF32E04E4800782A3053
:103400001E49085C742821D14A4800782C30085C99
:103410004D49087008460078312804D14BA149482D
:10342000FCF76AFF1CE048480078302804D148A126
:103430004448FCF761FF13E0434800783F2805D17A
:1034400043A14048FCF758FF0AE014E041A13D4881
:10345000FCF752FF04E043A13A48FCF74DFF00BFE0
:103460003848FCF76DFFC4B242482246354903682C
:103470000248FFF7D5F94FF4967010BD9C1E00204E
:103480008C0100207C010020900100204745542041
:1034900000000000485454502F312E30203230307C
:1034A000204F4B0D0A436F6E74656E742D54797006
:1034B000653A20746578742F68746D6C0D0A0D0A76
:1034C0003C68313E323030204F4B3C2F68313E005B
:1034D0002F200000485454502F312E3020323030ED
:1034E000204F4B0D0A436F6E74656E742D547970C6
:1034F000653A20746578742F68746D6C0D0A0D0A36
:10350000000000003C703E55736167653A20000082
:103510006601002070617373776F72643C2F703E98
:1035200000000000960100204438000894010020AB
:103530009701002095010020653D6E6F5F636D640B
:10354000000000007924002098010020743D310023
:10355000743D3000653D6E6F5F737563685F636DCA
:1035600064000000653D696E76616C69645F707728
:10357000000000008001002070B5FEF7D7F901219E
:1035800044F21D00FDF7F2FF1149481EB0F1807FA3
:1035900000D31BE0481E4FF0E022506150170F226D
:1035A000002804DB13071C0E0A4B1C5406E013070B
:1035B0001D0E094B00F00F04241F1D5500BF0020F5
:1035C0004FF0E02290610720106100BF70BD000045
:1035D0004019010000E400E018ED00E010B52448B7
:1035E000006800F0004078B12148006840002049A0
:1035F00008600846006840F0010008604FF4005180
:103600001C48FDF7DCFD09E0194800684000184936
:1036100008604FF400511748FDF7D3FD1648C08AE3
:1036200064280BDC1448008B642807DC1248408BAC
:10363000642803DC1048808B642817DD0F4800885D
:10364000401C0E4908800846008803280EDD0A4801
:10365000B0F8C00000F47F40B0F5B44F06D045F696
:1036600001200549A1F8C000FEF796FE10BD00003C
:1036700018010020001001403C030020220100201E
:1036800010B512480078F8B1104801781048FEF7DC
:103690006EFA00BF40210E48FEF79CF90028F9D0D1
:1036A00000200A49087000240CE00A48015D08481F
:1036B000FEF75DFA00BF40210548FEF78BF90028B0
:1036C000F9D0641C202CF0DB10BD00002901002083
:1036D000003801407C1C00201CB5174800881749A1
:1036E0000988884201D0FFF79FFA1548007820B179
:1036F000002013490870FEF74FFE12480078C8B149
:10370000002010490870104890F866000E4991F8A2
:1037100064100D4CCDE90010B4F86440230A0A4C43
:1037200094F86220B4F86240210A074CB4F86000B3
:10373000FDF722FE1CBD00001C0100201E01002020
:1037400026010020270100203C03002010B50A4874
:10375000FEF708FA09490A4A12888854084800887E
:10376000401C0749088008460088B0F5006F01D169
:103770000020088010BD0000003801403C0B0020F4
:103780001C01002010B50446052221460348FCF721
:10379000F6FD08B9012010BD0020FCE784010020DF
:1037A0002DE9F04107460C4615464FF0000802216E
:1037B0001348FDF706FD02211148FDF700FD45F60F
:1037C000A520FFF7CBFC0120FFF7C8FC2846FFF738
:1037D000C5FC3846FFF7C2FC002608E02088FFF74A
:1037E000BDFC208840441FFA80F8A41C761CAE4221
:1037F000F4DB02210248FDF7E4FC0020BDE8F08183
:10380000000801401F1C1F1E1F1E1F1F1E1F1E1F02
:103810003031323334353637383941424344454606
:103820004030580030313233343536373839616200
:1038300063646566403078003A7474003A747400CA
:103840003A747400485454502F312E3020343031A3
:1038500020556E617574686F72697A65640D0A43EC
:103860006F6E74656E742D547970653A2074657846
:10387000742F68746D6C0D0A0D0A3C68313E34304B
:103880003120556E617574686F72697A65643C2F7A
:1038900068313E003C2F63656E7465723E3C687211
:1038A0003E3C7020616C69676E3D63656E74657245
:1038B0003ECFEACFB8D0C5CFA2C7EBB7C3CECAA31D
:1038C000BA3C6120687265663D22687474703A2F54
:1038D0002F7777772E6C63736F66742E6E65742204
:1038E0003E687474703A2F2F7777772E6C63736FFE
:1038F00066742E6E65743C2F613E3C2F703E000056
:103900002039000800000020BC0100002801000848
:10391000143A0008BC0100203C2A00008401000881
:10392000100C4D61722020312032303137100932B5
:10393000333A31343A3133100A01020304050607E1
:10394000080910130A0B0C0D0E0F10111213141589
:10395000161718191A1B1D1D1E1F161429221119BE
:10396000234F0A0B17180102194A0C291D1F1213A5
:10397000010F1414090A392A1D070802192E1A1AF0
:103980001F192D3D1E151F11111B1606281149293F
:103990003A0B2819223920298029753C05060E7812
:1039A000698A89802974597F597A3A19934980190B
:1039B0007629613B0F03892975398D2B07088429E6
:1039C00080397A19853977198A49857980310211C8
:1039D000011554555810F724C0A8015850E910415A
:1039E000BA0A324815687474703A2F2F3139322E62
:1039F0003136382E312E38382F3823B00407136C67
:103A000063736F66742D01020304041A06E9F5025C
:043A100004060800A0
:04000005080000ED02
:00000001FF
